{
  "_format": "hh-sol-artifact-1",
  "contractName": "EoaBond",
  "sourceName": "contracts/EoaBond.sol",
  "abi": [
    {
      "inputs": [],
      "stateMutability": "nonpayable",
      "type": "constructor"
    },
    {
      "anonymous": false,
      "inputs": [
        {
          "indexed": false,
          "internalType": "uint256",
          "name": "policyId",
          "type": "uint256"
        },
        {
          "indexed": false,
          "internalType": "address",
          "name": "allowedAddress",
          "type": "address"
        }
      ],
      "name": "AddressAddedToPolicy",
      "type": "event"
    },
    {
      "anonymous": false,
      "inputs": [
        {
          "indexed": false,
          "internalType": "address",
          "name": "mainEoa",
          "type": "address"
        },
        {
          "indexed": false,
          "internalType": "address",
          "name": "apiEoa",
          "type": "address"
        }
      ],
      "name": "Bond",
      "type": "event"
    },
    {
      "anonymous": false,
      "inputs": [
        {
          "indexed": false,
          "internalType": "uint256",
          "name": "bucketId",
          "type": "uint256"
        },
        {
          "indexed": false,
          "internalType": "address",
          "name": "owner",
          "type": "address"
        }
      ],
      "name": "BucketAdded",
      "type": "event"
    },
    {
      "anonymous": false,
      "inputs": [
        {
          "indexed": false,
          "internalType": "uint256",
          "name": "bucketId",
          "type": "uint256"
        }
      ],
      "name": "BucketDeactivated",
      "type": "event"
    },
    {
      "anonymous": false,
      "inputs": [
        {
          "indexed": false,
          "internalType": "address",
          "name": "mainEoa",
          "type": "address"
        }
      ],
      "name": "Detach",
      "type": "event"
    },
    {
      "anonymous": false,
      "inputs": [
        {
          "indexed": false,
          "internalType": "uint8",
          "name": "version",
          "type": "uint8"
        }
      ],
      "name": "Initialized",
      "type": "event"
    },
    {
      "anonymous": false,
      "inputs": [
        {
          "indexed": false,
          "internalType": "uint256",
          "name": "policyId",
          "type": "uint256"
        },
        {
          "indexed": false,
          "internalType": "address",
          "name": "owner",
          "type": "address"
        }
      ],
      "name": "PolicyAdded",
      "type": "event"
    },
    {
      "anonymous": false,
      "inputs": [
        {
          "indexed": false,
          "internalType": "uint256",
          "name": "bucketId",
          "type": "uint256"
        },
        {
          "indexed": false,
          "internalType": "uint256",
          "name": "policyId",
          "type": "uint256"
        }
      ],
      "name": "PolicyAddedToBucket",
      "type": "event"
    },
    {
      "anonymous": false,
      "inputs": [
        {
          "indexed": false,
          "internalType": "uint256",
          "name": "policyId",
          "type": "uint256"
        }
      ],
      "name": "PolicyDeactivated",
      "type": "event"
    },
    {
      "anonymous": false,
      "inputs": [
        {
          "indexed": true,
          "internalType": "bytes32",
          "name": "role",
          "type": "bytes32"
        },
        {
          "indexed": true,
          "internalType": "bytes32",
          "name": "previousAdminRole",
          "type": "bytes32"
        },
        {
          "indexed": true,
          "internalType": "bytes32",
          "name": "newAdminRole",
          "type": "bytes32"
        }
      ],
      "name": "RoleAdminChanged",
      "type": "event"
    },
    {
      "anonymous": false,
      "inputs": [
        {
          "indexed": true,
          "internalType": "bytes32",
          "name": "role",
          "type": "bytes32"
        },
        {
          "indexed": true,
          "internalType": "address",
          "name": "account",
          "type": "address"
        },
        {
          "indexed": true,
          "internalType": "address",
          "name": "sender",
          "type": "address"
        }
      ],
      "name": "RoleGranted",
      "type": "event"
    },
    {
      "anonymous": false,
      "inputs": [
        {
          "indexed": true,
          "internalType": "bytes32",
          "name": "role",
          "type": "bytes32"
        },
        {
          "indexed": true,
          "internalType": "address",
          "name": "account",
          "type": "address"
        },
        {
          "indexed": true,
          "internalType": "address",
          "name": "sender",
          "type": "address"
        }
      ],
      "name": "RoleRevoked",
      "type": "event"
    },
    {
      "inputs": [],
      "name": "DEFAULT_ADMIN_ROLE",
      "outputs": [
        {
          "internalType": "bytes32",
          "name": "",
          "type": "bytes32"
        }
      ],
      "stateMutability": "view",
      "type": "function"
    },
    {
      "inputs": [
        {
          "internalType": "uint256",
          "name": "policyId",
          "type": "uint256"
        },
        {
          "internalType": "address",
          "name": "allowedAddress",
          "type": "address"
        }
      ],
      "name": "addAllowedAddressToPolicy",
      "outputs": [],
      "stateMutability": "nonpayable",
      "type": "function"
    },
    {
      "inputs": [
        {
          "internalType": "uint256",
          "name": "bucketId",
          "type": "uint256"
        },
        {
          "internalType": "uint256[]",
          "name": "policyIds",
          "type": "uint256[]"
        },
        {
          "internalType": "string",
          "name": "dataFormat",
          "type": "string"
        },
        {
          "internalType": "string",
          "name": "nodeAddress",
          "type": "string"
        }
      ],
      "name": "addBucket",
      "outputs": [],
      "stateMutability": "nonpayable",
      "type": "function"
    },
    {
      "inputs": [
        {
          "internalType": "uint256",
          "name": "policyId",
          "type": "uint256"
        },
        {
          "internalType": "string[]",
          "name": "allowedCategories",
          "type": "string[]"
        },
        {
          "internalType": "address[]",
          "name": "allowedAddresses",
          "type": "address[]"
        },
        {
          "internalType": "string[]",
          "name": "allowedColumns",
          "type": "string[]"
        },
        {
          "internalType": "uint256",
          "name": "expDate",
          "type": "uint256"
        },
        {
          "internalType": "uint256",
          "name": "price",
          "type": "uint256"
        }
      ],
      "name": "addPolicy",
      "outputs": [],
      "stateMutability": "nonpayable",
      "type": "function"
    },
    {
      "inputs": [
        {
          "internalType": "uint256",
          "name": "bucketId",
          "type": "uint256"
        },
        {
          "internalType": "uint256",
          "name": "policyId",
          "type": "uint256"
        }
      ],
      "name": "addPolicyToBucket",
      "outputs": [],
      "stateMutability": "nonpayable",
      "type": "function"
    },
    {
      "inputs": [
        {
          "internalType": "address",
          "name": "",
          "type": "address"
        }
      ],
      "name": "apiEoas",
      "outputs": [
        {
          "internalType": "address",
          "name": "",
          "type": "address"
        }
      ],
      "stateMutability": "view",
      "type": "function"
    },
    {
      "inputs": [
        {
          "internalType": "address",
          "name": "apiEoa",
          "type": "address"
        }
      ],
      "name": "bond",
      "outputs": [],
      "stateMutability": "nonpayable",
      "type": "function"
    },
    {
      "inputs": [
        {
          "internalType": "uint256",
          "name": "",
          "type": "uint256"
        }
      ],
      "name": "buckets",
      "outputs": [
        {
          "internalType": "string",
          "name": "dataFormat",
          "type": "string"
        },
        {
          "internalType": "string",
          "name": "nodeAddress",
          "type": "string"
        },
        {
          "internalType": "address",
          "name": "owner",
          "type": "address"
        },
        {
          "internalType": "bool",
          "name": "deactivated",
          "type": "bool"
        }
      ],
      "stateMutability": "view",
      "type": "function"
    },
    {
      "inputs": [
        {
          "internalType": "address",
          "name": "",
          "type": "address"
        }
      ],
      "name": "dataProviders",
      "outputs": [
        {
          "internalType": "uint256",
          "name": "joinDate",
          "type": "uint256"
        },
        {
          "internalType": "string",
          "name": "category",
          "type": "string"
        }
      ],
      "stateMutability": "view",
      "type": "function"
    },
    {
      "inputs": [
        {
          "internalType": "address",
          "name": "",
          "type": "address"
        }
      ],
      "name": "dataSeekers",
      "outputs": [
        {
          "internalType": "uint256",
          "name": "joinDate",
          "type": "uint256"
        },
        {
          "internalType": "string",
          "name": "category",
          "type": "string"
        }
      ],
      "stateMutability": "view",
      "type": "function"
    },
    {
      "inputs": [
        {
          "internalType": "uint256",
          "name": "bucketId",
          "type": "uint256"
        }
      ],
      "name": "deactivateBucket",
      "outputs": [],
      "stateMutability": "nonpayable",
      "type": "function"
    },
    {
      "inputs": [
        {
          "internalType": "uint256",
          "name": "policyId",
          "type": "uint256"
        }
      ],
      "name": "deactivatePolicy",
      "outputs": [],
      "stateMutability": "nonpayable",
      "type": "function"
    },
    {
      "inputs": [],
      "name": "detach",
      "outputs": [],
      "stateMutability": "nonpayable",
      "type": "function"
    },
    {
      "inputs": [
        {
          "internalType": "uint256",
          "name": "policyId",
          "type": "uint256"
        }
      ],
      "name": "getAllowedAddresses",
      "outputs": [
        {
          "internalType": "address[]",
          "name": "",
          "type": "address[]"
        }
      ],
      "stateMutability": "view",
      "type": "function"
    },
    {
      "inputs": [
        {
          "internalType": "uint256",
          "name": "policyId",
          "type": "uint256"
        }
      ],
      "name": "getAllowedCategories",
      "outputs": [
        {
          "internalType": "string[]",
          "name": "",
          "type": "string[]"
        }
      ],
      "stateMutability": "view",
      "type": "function"
    },
    {
      "inputs": [
        {
          "internalType": "uint256",
          "name": "policyId",
          "type": "uint256"
        }
      ],
      "name": "getAllowedColumns",
      "outputs": [
        {
          "internalType": "string[]",
          "name": "",
          "type": "string[]"
        }
      ],
      "stateMutability": "view",
      "type": "function"
    },
    {
      "inputs": [
        {
          "internalType": "uint256",
          "name": "bucketId",
          "type": "uint256"
        }
      ],
      "name": "getPolicyIds",
      "outputs": [
        {
          "internalType": "uint256[]",
          "name": "",
          "type": "uint256[]"
        }
      ],
      "stateMutability": "view",
      "type": "function"
    },
    {
      "inputs": [
        {
          "internalType": "bytes32",
          "name": "role",
          "type": "bytes32"
        }
      ],
      "name": "getRoleAdmin",
      "outputs": [
        {
          "internalType": "bytes32",
          "name": "",
          "type": "bytes32"
        }
      ],
      "stateMutability": "view",
      "type": "function"
    },
    {
      "inputs": [
        {
          "internalType": "bytes32",
          "name": "role",
          "type": "bytes32"
        },
        {
          "internalType": "address",
          "name": "account",
          "type": "address"
        }
      ],
      "name": "grantRole",
      "outputs": [],
      "stateMutability": "nonpayable",
      "type": "function"
    },
    {
      "inputs": [
        {
          "internalType": "bytes32",
          "name": "role",
          "type": "bytes32"
        },
        {
          "internalType": "address",
          "name": "account",
          "type": "address"
        }
      ],
      "name": "hasRole",
      "outputs": [
        {
          "internalType": "bool",
          "name": "",
          "type": "bool"
        }
      ],
      "stateMutability": "view",
      "type": "function"
    },
    {
      "inputs": [],
      "name": "initialize",
      "outputs": [],
      "stateMutability": "nonpayable",
      "type": "function"
    },
    {
      "inputs": [
        {
          "internalType": "address",
          "name": "a",
          "type": "address"
        }
      ],
      "name": "mainAccount",
      "outputs": [
        {
          "internalType": "address",
          "name": "",
          "type": "address"
        }
      ],
      "stateMutability": "view",
      "type": "function"
    },
    {
      "inputs": [
        {
          "internalType": "address",
          "name": "",
          "type": "address"
        }
      ],
      "name": "mainEoas",
      "outputs": [
        {
          "internalType": "address",
          "name": "",
          "type": "address"
        }
      ],
      "stateMutability": "view",
      "type": "function"
    },
    {
      "inputs": [
        {
          "internalType": "address",
          "name": "",
          "type": "address"
        },
        {
          "internalType": "uint256",
          "name": "",
          "type": "uint256"
        }
      ],
      "name": "ownerBucketIds",
      "outputs": [
        {
          "internalType": "uint256",
          "name": "",
          "type": "uint256"
        }
      ],
      "stateMutability": "view",
      "type": "function"
    },
    {
      "inputs": [
        {
          "internalType": "address",
          "name": "",
          "type": "address"
        },
        {
          "internalType": "uint256",
          "name": "",
          "type": "uint256"
        }
      ],
      "name": "ownerPolicyIds",
      "outputs": [
        {
          "internalType": "uint256",
          "name": "",
          "type": "uint256"
        }
      ],
      "stateMutability": "view",
      "type": "function"
    },
    {
      "inputs": [
        {
          "internalType": "uint256",
          "name": "",
          "type": "uint256"
        }
      ],
      "name": "policies",
      "outputs": [
        {
          "internalType": "uint256",
          "name": "expDate",
          "type": "uint256"
        },
        {
          "internalType": "uint256",
          "name": "price",
          "type": "uint256"
        },
        {
          "internalType": "address",
          "name": "owner",
          "type": "address"
        },
        {
          "internalType": "bool",
          "name": "deactivated",
          "type": "bool"
        }
      ],
      "stateMutability": "view",
      "type": "function"
    },
    {
      "inputs": [
        {
          "internalType": "bytes32",
          "name": "role",
          "type": "bytes32"
        },
        {
          "internalType": "address",
          "name": "account",
          "type": "address"
        }
      ],
      "name": "renounceRole",
      "outputs": [],
      "stateMutability": "nonpayable",
      "type": "function"
    },
    {
      "inputs": [
        {
          "internalType": "bytes32",
          "name": "role",
          "type": "bytes32"
        },
        {
          "internalType": "address",
          "name": "account",
          "type": "address"
        }
      ],
      "name": "revokeRole",
      "outputs": [],
      "stateMutability": "nonpayable",
      "type": "function"
    },
    {
      "inputs": [
        {
          "internalType": "address",
          "name": "dpAddr",
          "type": "address"
        },
        {
          "internalType": "string",
          "name": "category",
          "type": "string"
        }
      ],
      "name": "setDataProvider",
      "outputs": [],
      "stateMutability": "nonpayable",
      "type": "function"
    },
    {
      "inputs": [
        {
          "internalType": "address",
          "name": "dsAddr",
          "type": "address"
        },
        {
          "internalType": "string",
          "name": "category",
          "type": "string"
        }
      ],
      "name": "setDataSeeker",
      "outputs": [],
      "stateMutability": "nonpayable",
      "type": "function"
    },
    {
      "inputs": [
        {
          "internalType": "bytes4",
          "name": "interfaceId",
          "type": "bytes4"
        }
      ],
      "name": "supportsInterface",
      "outputs": [
        {
          "internalType": "bool",
          "name": "",
          "type": "bool"
        }
      ],
      "stateMutability": "view",
      "type": "function"
    }
  ],
  "bytecode": "0x60806040523480156200001157600080fd5b50620000226200002860201b60201c565b620001d2565b600060019054906101000a900460ff16156200007b576040517f08c379a0000000000000000000000000000000000000000000000000000000008152600401620000729062000175565b60405180910390fd5b60ff801660008054906101000a900460ff1660ff1614620000ec5760ff6000806101000a81548160ff021916908360ff1602179055507f7f26b83ff96e1f2b6a682f133852f6798a09c465da95921460cefb384740249860ff604051620000e39190620001b5565b60405180910390a15b565b600082825260208201905092915050565b7f496e697469616c697a61626c653a20636f6e747261637420697320696e69746960008201527f616c697a696e6700000000000000000000000000000000000000000000000000602082015250565b60006200015d602783620000ee565b91506200016a82620000ff565b604082019050919050565b6000602082019050818103600083015262000190816200014e565b9050919050565b600060ff82169050919050565b620001af8162000197565b82525050565b6000602082019050620001cc6000830184620001a4565b92915050565b61432780620001e26000396000f3fe608060405234801561001057600080fd5b50600436106101e45760003560e01c8063854e7cb31161010f578063afa245b4116100a2578063de92695a11610071578063de92695a146105db578063ded7f4ae1461060b578063eb4a46451461063b578063fde37aee14610657576101e4565b8063afa245b41461052c578063d2c8257a1461055c578063d3e894831461058c578063d547741f146105bf576101e4565b806396c78fb4116100de57806396c78fb4146104a35780639b51fb0d146104bf578063a0f82994146104f2578063a217fddf1461050e576101e4565b8063854e7cb3146103f75780638897f045146104275780638d8e8e3c1461044357806391d1485414610473576101e4565b806336568abe116101875780636f22aa70116101565780636f22aa701461035c578063780aac031461038c578063796d749b146103bd5780638129fc1c146103ed576101e4565b806336568abe146102d757806336998de8146102f35780635773d1801461030f5780635efb538a14610340576101e4565b8063225435c0116101c3578063225435c014610265578063247ce85b1461026f578063248a9ca31461028b5780632f2ff15d146102bb576101e4565b806225606f146101e957806301ffc9a714610219578063118f124914610249575b600080fd5b61020360048036038101906101fe919061299b565b610673565b60405161021091906129d7565b60405180910390f35b610233600480360381019061022e9190612a4a565b6106a6565b6040516102409190612a92565b60405180910390f35b610263600480360381019061025e9190612ae3565b610720565b005b61026d610829565b005b6102896004803603810190610284919061299b565b6109bf565b005b6102a560048036038101906102a09190612b46565b610d01565b6040516102b29190612b82565b60405180910390f35b6102d560048036038101906102d09190612b9d565b610d21565b005b6102f160048036038101906102ec9190612b9d565b610d42565b005b61030d60048036038101906103089190612c98565b610dc5565b005b6103296004803603810190610324919061299b565b610fe7565b604051610337929190612e00565b60405180910390f35b61035a60048036038101906103559190612e30565b611093565b005b6103766004803603810190610371919061299b565b6111ff565b60405161038391906129d7565b60405180910390f35b6103a660048036038101906103a1919061299b565b611232565b6040516103b4929190612e00565b60405180910390f35b6103d760048036038101906103d2919061299b565b6112de565b6040516103e491906129d7565b60405180910390f35b6103f56113e2565b005b610411600480360381019061040c9190612ae3565b61152d565b60405161041e9190612f7c565b60405180910390f35b610441600480360381019061043c9190612f9e565b61161c565b005b61045d60048036038101906104589190612ffe565b611713565b60405161046a919061303e565b60405180910390f35b61048d60048036038101906104889190612b9d565b611744565b60405161049a9190612a92565b60405180910390f35b6104bd60048036038101906104b89190613059565b6117af565b005b6104d960048036038101906104d49190612ae3565b611955565b6040516104e99493929190613099565b60405180910390f35b61050c60048036038101906105079190612f9e565b611ac2565b005b610516611bb9565b6040516105239190612b82565b60405180910390f35b61054660048036038101906105419190612ffe565b611bc0565b604051610553919061303e565b60405180910390f35b61057660048036038101906105719190612ae3565b611bf1565b60405161058391906131aa565b60405180910390f35b6105a660048036038101906105a19190612ae3565b611c5f565b6040516105b694939291906131cc565b60405180910390f35b6105d960048036038101906105d49190612b9d565b611cbc565b005b6105f560048036038101906105f09190612ae3565b611cdd565b6040516106029190612f7c565b60405180910390f35b61062560048036038101906106209190612ae3565b611dcc565b60405161063291906132cf565b60405180910390f35b61065560048036038101906106509190612ae3565b611e70565b005b610671600480360381019061066c9190613558565b611f79565b005b60976020528060005260406000206000915054906101000a900473ffffffffffffffffffffffffffffffffffffffff1681565b60007f7965db0b000000000000000000000000000000000000000000000000000000007bffffffffffffffffffffffffffffffffffffffffffffffffffffffff1916827bffffffffffffffffffffffffffffffffffffffffffffffffffffffff191614806107195750610718826121b7565b5b9050919050565b6000609c60008381526020019081526020016000209050610740336112de565b73ffffffffffffffffffffffffffffffffffffffff168160030160009054906101000a900473ffffffffffffffffffffffffffffffffffffffff1673ffffffffffffffffffffffffffffffffffffffff16146107d1576040517f08c379a00000000000000000000000000000000000000000000000000000000081526004016107c89061368b565b60405180910390fd5b60018160030160146101000a81548160ff0219169083151502179055507f3002681acd76b745f42970dd6c00cd7a2f96c2de284fdfd06e0f8fb11296f6508260405161081d919061303e565b60405180910390a15050565b600060986000609760003373ffffffffffffffffffffffffffffffffffffffff1673ffffffffffffffffffffffffffffffffffffffff16815260200190815260200160002060009054906101000a900473ffffffffffffffffffffffffffffffffffffffff1673ffffffffffffffffffffffffffffffffffffffff1673ffffffffffffffffffffffffffffffffffffffff16815260200190815260200160002060006101000a81548173ffffffffffffffffffffffffffffffffffffffff021916908373ffffffffffffffffffffffffffffffffffffffff1602179055506000609760003373ffffffffffffffffffffffffffffffffffffffff1673ffffffffffffffffffffffffffffffffffffffff16815260200190815260200160002060006101000a81548173ffffffffffffffffffffffffffffffffffffffff021916908373ffffffffffffffffffffffffffffffffffffffff1602179055507fc4334c4bd536e76bf4341972a09af796d8fd3c7336b1a827427f6c0b52b66202336040516109b591906129d7565b60405180910390a1565b600073ffffffffffffffffffffffffffffffffffffffff16609760003373ffffffffffffffffffffffffffffffffffffffff1673ffffffffffffffffffffffffffffffffffffffff16815260200190815260200160002060009054906101000a900473ffffffffffffffffffffffffffffffffffffffff1673ffffffffffffffffffffffffffffffffffffffff1614610a8d576040517f08c379a0000000000000000000000000000000000000000000000000000000008152600401610a84906136f7565b60405180910390fd5b600073ffffffffffffffffffffffffffffffffffffffff16609860008373ffffffffffffffffffffffffffffffffffffffff1673ffffffffffffffffffffffffffffffffffffffff16815260200190815260200160002060009054906101000a900473ffffffffffffffffffffffffffffffffffffffff1673ffffffffffffffffffffffffffffffffffffffff1614610b5b576040517f08c379a0000000000000000000000000000000000000000000000000000000008152600401610b5290613763565b60405180910390fd5b8073ffffffffffffffffffffffffffffffffffffffff163373ffffffffffffffffffffffffffffffffffffffff1603610bc9576040517f08c379a0000000000000000000000000000000000000000000000000000000008152600401610bc0906137cf565b60405180910390fd5b80609760003373ffffffffffffffffffffffffffffffffffffffff1673ffffffffffffffffffffffffffffffffffffffff16815260200190815260200160002060006101000a81548173ffffffffffffffffffffffffffffffffffffffff021916908373ffffffffffffffffffffffffffffffffffffffff16021790555033609860008373ffffffffffffffffffffffffffffffffffffffff1673ffffffffffffffffffffffffffffffffffffffff16815260200190815260200160002060006101000a81548173ffffffffffffffffffffffffffffffffffffffff021916908373ffffffffffffffffffffffffffffffffffffffff1602179055507f926f98e4b543897a75b3e34b7494ba68a47829d3aa39ffd9c478ccc51bfbfb443382604051610cf69291906137ef565b60405180910390a150565b600060656000838152602001908152602001600020600101549050919050565b610d2a82610d01565b610d3381612221565b610d3d8383612235565b505050565b610d4a612316565b73ffffffffffffffffffffffffffffffffffffffff168173ffffffffffffffffffffffffffffffffffffffff1614610db7576040517f08c379a0000000000000000000000000000000000000000000000000000000008152600401610dae9061388a565b60405180910390fd5b610dc1828261231e565b5050565b6000609c60008981526020019081526020016000209050600073ffffffffffffffffffffffffffffffffffffffff168160030160009054906101000a900473ffffffffffffffffffffffffffffffffffffffff1673ffffffffffffffffffffffffffffffffffffffff1614610e6f576040517f08c379a0000000000000000000000000000000000000000000000000000000008152600401610e66906138f6565b60405180910390fd5b8686826000019190610e82929190612762565b508484826001019182610e96929190613b2d565b508282826002019182610eaa929190613b2d565b50610eb4336112de565b8160030160006101000a81548173ffffffffffffffffffffffffffffffffffffffff021916908373ffffffffffffffffffffffffffffffffffffffff160217905550609d60008260030160009054906101000a900473ffffffffffffffffffffffffffffffffffffffff1673ffffffffffffffffffffffffffffffffffffffff1673ffffffffffffffffffffffffffffffffffffffff1681526020019081526020016000208890806001815401808255809150506001900390600052602060002001600090919091909150557fe737a3ee8520887c4018b97f640958f8a2ad13444ab4ff075956b54ca1251684888260030160009054906101000a900473ffffffffffffffffffffffffffffffffffffffff16604051610fd5929190613bfd565b60405180910390a15050505050505050565b609a60205280600052604060002060009150905080600001549080600101805461101090613950565b80601f016020809104026020016040519081016040528092919081815260200182805461103c90613950565b80156110895780601f1061105e57610100808354040283529160200191611089565b820191906000526020600020905b81548152906001019060200180831161106c57829003601f168201915b5050505050905082565b6000609c600084815260200190815260200160002090506110b3336112de565b73ffffffffffffffffffffffffffffffffffffffff168160030160009054906101000a900473ffffffffffffffffffffffffffffffffffffffff1673ffffffffffffffffffffffffffffffffffffffff1614611144576040517f08c379a000000000000000000000000000000000000000000000000000000000815260040161113b9061368b565b60405180910390fd5b8060030160149054906101000a900460ff1615611196576040517f08c379a000000000000000000000000000000000000000000000000000000000815260040161118d90613c72565b60405180910390fd5b806000018290806001815401808255809150506001900390600052602060002001600090919091909150557f97fd0f78540a5bcd5a6b6af3e260ab088b75e70678c3768ba048e94d701531b383836040516111f2929190613c92565b60405180910390a1505050565b60986020528060005260406000206000915054906101000a900473ffffffffffffffffffffffffffffffffffffffff1681565b609960205280600052604060002060009150905080600001549080600101805461125b90613950565b80601f016020809104026020016040519081016040528092919081815260200182805461128790613950565b80156112d45780601f106112a9576101008083540402835291602001916112d4565b820191906000526020600020905b8154815290600101906020018083116112b757829003601f168201915b5050505050905082565b60008073ffffffffffffffffffffffffffffffffffffffff16609860008473ffffffffffffffffffffffffffffffffffffffff1673ffffffffffffffffffffffffffffffffffffffff16815260200190815260200160002060009054906101000a900473ffffffffffffffffffffffffffffffffffffffff1673ffffffffffffffffffffffffffffffffffffffff160361137a578190506113dd565b609860008373ffffffffffffffffffffffffffffffffffffffff1673ffffffffffffffffffffffffffffffffffffffff16815260200190815260200160002060009054906101000a900473ffffffffffffffffffffffffffffffffffffffff1690505b919050565b60008060019054906101000a900460ff161590508080156114135750600160008054906101000a900460ff1660ff16105b80611440575061142230612400565b15801561143f5750600160008054906101000a900460ff1660ff16145b5b61147f576040517f08c379a000000000000000000000000000000000000000000000000000000000815260040161147690613d2d565b60405180910390fd5b60016000806101000a81548160ff021916908360ff16021790555080156114bc576001600060016101000a81548160ff0219169083151502179055505b6114c4612423565b6114d16000801b33612235565b801561152a5760008060016101000a81548160ff0219169083151502179055507f7f26b83ff96e1f2b6a682f133852f6798a09c465da95921460cefb384740249860016040516115219190613d95565b60405180910390a15b50565b6060609b6000838152602001908152602001600020600001805480602002602001604051908101604052809291908181526020016000905b8282101561161157838290600052602060002001805461158490613950565b80601f01602080910402602001604051908101604052809291908181526020018280546115b090613950565b80156115fd5780601f106115d2576101008083540402835291602001916115fd565b820191906000526020600020905b8154815290600101906020018083116115e057829003601f168201915b505050505081526020019060010190611565565b505050509050919050565b6000801b61162981612221565b6000609960008673ffffffffffffffffffffffffffffffffffffffff1673ffffffffffffffffffffffffffffffffffffffff16815260200190815260200160002060000154036116bb5742609960008673ffffffffffffffffffffffffffffffffffffffff1673ffffffffffffffffffffffffffffffffffffffff168152602001908152602001600020600001819055505b8282609960008773ffffffffffffffffffffffffffffffffffffffff1673ffffffffffffffffffffffffffffffffffffffff168152602001908152602001600020600101918261170c929190613b2d565b5050505050565b609d602052816000526040600020818154811061172f57600080fd5b90600052602060002001600091509150505481565b60006065600084815260200190815260200160002060000160008373ffffffffffffffffffffffffffffffffffffffff1673ffffffffffffffffffffffffffffffffffffffff16815260200190815260200160002060009054906101000a900460ff16905092915050565b6000609b600084815260200190815260200160002090506117cf336112de565b73ffffffffffffffffffffffffffffffffffffffff168160050160009054906101000a900473ffffffffffffffffffffffffffffffffffffffff1673ffffffffffffffffffffffffffffffffffffffff1614611860576040517f08c379a000000000000000000000000000000000000000000000000000000000815260040161185790613dfc565b60405180910390fd5b8060050160149054906101000a900460ff16156118b2576040517f08c379a00000000000000000000000000000000000000000000000000000000081526004016118a990613e68565b60405180910390fd5b80600101829080600181540180825580915050600190039060005260206000200160009091909190916101000a81548173ffffffffffffffffffffffffffffffffffffffff021916908373ffffffffffffffffffffffffffffffffffffffff1602179055507f9c36476ec530d5b4024edee8143f1fc33550a1ad216d2e678245eb458edcd16c8383604051611948929190613bfd565b60405180910390a1505050565b609c60205280600052604060002060009150905080600101805461197890613950565b80601f01602080910402602001604051908101604052809291908181526020018280546119a490613950565b80156119f15780601f106119c6576101008083540402835291602001916119f1565b820191906000526020600020905b8154815290600101906020018083116119d457829003601f168201915b505050505090806002018054611a0690613950565b80601f0160208091040260200160405190810160405280929190818152602001828054611a3290613950565b8015611a7f5780601f10611a5457610100808354040283529160200191611a7f565b820191906000526020600020905b815481529060010190602001808311611a6257829003601f168201915b5050505050908060030160009054906101000a900473ffffffffffffffffffffffffffffffffffffffff16908060030160149054906101000a900460ff16905084565b6000801b611acf81612221565b6000609a60008673ffffffffffffffffffffffffffffffffffffffff1673ffffffffffffffffffffffffffffffffffffffff1681526020019081526020016000206000015403611b615742609a60008673ffffffffffffffffffffffffffffffffffffffff1673ffffffffffffffffffffffffffffffffffffffff168152602001908152602001600020600001819055505b8282609a60008773ffffffffffffffffffffffffffffffffffffffff1673ffffffffffffffffffffffffffffffffffffffff1681526020019081526020016000206001019182611bb2929190613b2d565b5050505050565b6000801b81565b609e6020528160005260406000208181548110611bdc57600080fd5b90600052602060002001600091509150505481565b6060609c6000838152602001908152602001600020600001805480602002602001604051908101604052809291908181526020018280548015611c5357602002820191906000526020600020905b815481526020019060010190808311611c3f575b50505050509050919050565b609b6020528060005260406000206000915090508060030154908060040154908060050160009054906101000a900473ffffffffffffffffffffffffffffffffffffffff16908060050160149054906101000a900460ff16905084565b611cc582610d01565b611cce81612221565b611cd8838361231e565b505050565b6060609b6000838152602001908152602001600020600201805480602002602001604051908101604052809291908181526020016000905b82821015611dc1578382906000526020600020018054611d3490613950565b80601f0160208091040260200160405190810160405280929190818152602001828054611d6090613950565b8015611dad5780601f10611d8257610100808354040283529160200191611dad565b820191906000526020600020905b815481529060010190602001808311611d9057829003601f168201915b505050505081526020019060010190611d15565b505050509050919050565b6060609b6000838152602001908152602001600020600101805480602002602001604051908101604052809291908181526020018280548015611e6457602002820191906000526020600020905b8160009054906101000a900473ffffffffffffffffffffffffffffffffffffffff1673ffffffffffffffffffffffffffffffffffffffff1681526020019060010190808311611e1a575b50505050509050919050565b6000609b60008381526020019081526020016000209050611e90336112de565b73ffffffffffffffffffffffffffffffffffffffff168160050160009054906101000a900473ffffffffffffffffffffffffffffffffffffffff1673ffffffffffffffffffffffffffffffffffffffff1614611f21576040517f08c379a0000000000000000000000000000000000000000000000000000000008152600401611f1890613dfc565b60405180910390fd5b60018160050160146101000a81548160ff0219169083151502179055507fa040c05c2aea9ad7da426cefbf383fc472d4759806d4aa7d1257f00f0faadd0182604051611f6d919061303e565b60405180910390a15050565b6000609b60008981526020019081526020016000209050600073ffffffffffffffffffffffffffffffffffffffff168160050160009054906101000a900473ffffffffffffffffffffffffffffffffffffffff1673ffffffffffffffffffffffffffffffffffffffff1614612023576040517f08c379a000000000000000000000000000000000000000000000000000000000815260040161201a90613ed4565b60405180910390fd5b8681600001908051906020019061203b9291906127af565b50858582600101919061204f929190612808565b50838160020190805190602001906120689291906127af565b50828160030181905550818160040181905550612084336112de565b8160050160006101000a81548173ffffffffffffffffffffffffffffffffffffffff021916908373ffffffffffffffffffffffffffffffffffffffff160217905550609e60008260050160009054906101000a900473ffffffffffffffffffffffffffffffffffffffff1673ffffffffffffffffffffffffffffffffffffffff1673ffffffffffffffffffffffffffffffffffffffff1681526020019081526020016000208890806001815401808255809150506001900390600052602060002001600090919091909150557f977367dcdd13b45f9ddcc1b0b549054231eee20e8e2795185f2448336a194146888260050160009054906101000a900473ffffffffffffffffffffffffffffffffffffffff166040516121a5929190613bfd565b60405180910390a15050505050505050565b60007f01ffc9a7000000000000000000000000000000000000000000000000000000007bffffffffffffffffffffffffffffffffffffffffffffffffffffffff1916827bffffffffffffffffffffffffffffffffffffffffffffffffffffffff1916149050919050565b6122328161222d612316565b612474565b50565b61223f8282611744565b6123125760016065600084815260200190815260200160002060000160008373ffffffffffffffffffffffffffffffffffffffff1673ffffffffffffffffffffffffffffffffffffffff16815260200190815260200160002060006101000a81548160ff0219169083151502179055506122b7612316565b73ffffffffffffffffffffffffffffffffffffffff168173ffffffffffffffffffffffffffffffffffffffff16837f2f8788117e7eff1d82e926ec794901d17c78024a50270940304540a733656f0d60405160405180910390a45b5050565b600033905090565b6123288282611744565b156123fc5760006065600084815260200190815260200160002060000160008373ffffffffffffffffffffffffffffffffffffffff1673ffffffffffffffffffffffffffffffffffffffff16815260200190815260200160002060006101000a81548160ff0219169083151502179055506123a1612316565b73ffffffffffffffffffffffffffffffffffffffff168173ffffffffffffffffffffffffffffffffffffffff16837ff6391f5c32d9c69d2a47ea670b442974b53935d1edc7fd64eb21e047a839171b60405160405180910390a45b5050565b6000808273ffffffffffffffffffffffffffffffffffffffff163b119050919050565b600060019054906101000a900460ff16612472576040517f08c379a000000000000000000000000000000000000000000000000000000000815260040161246990613f66565b60405180910390fd5b565b61247e8282611744565b6124f55761248b816124f9565b6124998360001c6020612526565b6040516020016124aa92919061405a565b6040516020818303038152906040526040517f08c379a00000000000000000000000000000000000000000000000000000000081526004016124ec9190614094565b60405180910390fd5b5050565b606061251f8273ffffffffffffffffffffffffffffffffffffffff16601460ff16612526565b9050919050565b60606000600283600261253991906140e5565b6125439190614127565b67ffffffffffffffff81111561255c5761255b6132f1565b5b6040519080825280601f01601f19166020018201604052801561258e5781602001600182028036833780820191505090505b5090507f3000000000000000000000000000000000000000000000000000000000000000816000815181106125c6576125c561415b565b5b60200101907effffffffffffffffffffffffffffffffffffffffffffffffffffffffffffff1916908160001a9053507f78000000000000000000000000000000000000000000000000000000000000008160018151811061262a5761262961415b565b5b60200101907effffffffffffffffffffffffffffffffffffffffffffffffffffffffffffff1916908160001a9053506000600184600261266a91906140e5565b6126749190614127565b90505b6001811115612714577f3031323334353637383961626364656600000000000000000000000000000000600f8616601081106126b6576126b561415b565b5b1a60f81b8282815181106126cd576126cc61415b565b5b60200101907effffffffffffffffffffffffffffffffffffffffffffffffffffffffffffff1916908160001a905350600485901c94508061270d9061418a565b9050612677565b5060008414612758576040517f08c379a000000000000000000000000000000000000000000000000000000000815260040161274f906141ff565b60405180910390fd5b8091505092915050565b82805482825590600052602060002090810192821561279e579160200282015b8281111561279d578235825591602001919060010190612782565b5b5090506127ab91906128a8565b5090565b8280548282559060005260206000209081019282156127f7579160200282015b828111156127f65782518290816127e6919061421f565b50916020019190600101906127cf565b5b50905061280491906128c5565b5090565b828054828255906000526020600020908101928215612897579160200282015b8281111561289657823573ffffffffffffffffffffffffffffffffffffffff168260006101000a81548173ffffffffffffffffffffffffffffffffffffffff021916908373ffffffffffffffffffffffffffffffffffffffff16021790555091602001919060010190612828565b5b5090506128a491906128a8565b5090565b5b808211156128c15760008160009055506001016128a9565b5090565b5b808211156128e557600081816128dc91906128e9565b506001016128c6565b5090565b5080546128f590613950565b6000825580601f106129075750612926565b601f01602090049060005260206000209081019061292591906128a8565b5b50565b6000604051905090565b600080fd5b600080fd5b600073ffffffffffffffffffffffffffffffffffffffff82169050919050565b60006129688261293d565b9050919050565b6129788161295d565b811461298357600080fd5b50565b6000813590506129958161296f565b92915050565b6000602082840312156129b1576129b0612933565b5b60006129bf84828501612986565b91505092915050565b6129d18161295d565b82525050565b60006020820190506129ec60008301846129c8565b92915050565b60007fffffffff0000000000000000000000000000000000000000000000000000000082169050919050565b612a27816129f2565b8114612a3257600080fd5b50565b600081359050612a4481612a1e565b92915050565b600060208284031215612a6057612a5f612933565b5b6000612a6e84828501612a35565b91505092915050565b60008115159050919050565b612a8c81612a77565b82525050565b6000602082019050612aa76000830184612a83565b92915050565b6000819050919050565b612ac081612aad565b8114612acb57600080fd5b50565b600081359050612add81612ab7565b92915050565b600060208284031215612af957612af8612933565b5b6000612b0784828501612ace565b91505092915050565b6000819050919050565b612b2381612b10565b8114612b2e57600080fd5b50565b600081359050612b4081612b1a565b92915050565b600060208284031215612b5c57612b5b612933565b5b6000612b6a84828501612b31565b91505092915050565b612b7c81612b10565b82525050565b6000602082019050612b976000830184612b73565b92915050565b60008060408385031215612bb457612bb3612933565b5b6000612bc285828601612b31565b9250506020612bd385828601612986565b9150509250929050565b600080fd5b600080fd5b600080fd5b60008083601f840112612c0257612c01612bdd565b5b8235905067ffffffffffffffff811115612c1f57612c1e612be2565b5b602083019150836020820283011115612c3b57612c3a612be7565b5b9250929050565b60008083601f840112612c5857612c57612bdd565b5b8235905067ffffffffffffffff811115612c7557612c74612be2565b5b602083019150836001820283011115612c9157612c90612be7565b5b9250929050565b60008060008060008060006080888a031215612cb757612cb6612933565b5b6000612cc58a828b01612ace565b975050602088013567ffffffffffffffff811115612ce657612ce5612938565b5b612cf28a828b01612bec565b9650965050604088013567ffffffffffffffff811115612d1557612d14612938565b5b612d218a828b01612c42565b9450945050606088013567ffffffffffffffff811115612d4457612d43612938565b5b612d508a828b01612c42565b925092505092959891949750929550565b612d6a81612aad565b82525050565b600081519050919050565b600082825260208201905092915050565b60005b83811015612daa578082015181840152602081019050612d8f565b60008484015250505050565b6000601f19601f8301169050919050565b6000612dd282612d70565b612ddc8185612d7b565b9350612dec818560208601612d8c565b612df581612db6565b840191505092915050565b6000604082019050612e156000830185612d61565b8181036020830152612e278184612dc7565b90509392505050565b60008060408385031215612e4757612e46612933565b5b6000612e5585828601612ace565b9250506020612e6685828601612ace565b9150509250929050565b600081519050919050565b600082825260208201905092915050565b6000819050602082019050919050565b600082825260208201905092915050565b6000612eb882612d70565b612ec28185612e9c565b9350612ed2818560208601612d8c565b612edb81612db6565b840191505092915050565b6000612ef28383612ead565b905092915050565b6000602082019050919050565b6000612f1282612e70565b612f1c8185612e7b565b935083602082028501612f2e85612e8c565b8060005b85811015612f6a5784840389528151612f4b8582612ee6565b9450612f5683612efa565b925060208a01995050600181019050612f32565b50829750879550505050505092915050565b60006020820190508181036000830152612f968184612f07565b905092915050565b600080600060408486031215612fb757612fb6612933565b5b6000612fc586828701612986565b935050602084013567ffffffffffffffff811115612fe657612fe5612938565b5b612ff286828701612c42565b92509250509250925092565b6000806040838503121561301557613014612933565b5b600061302385828601612986565b925050602061303485828601612ace565b9150509250929050565b60006020820190506130536000830184612d61565b92915050565b600080604083850312156130705761306f612933565b5b600061307e85828601612ace565b925050602061308f85828601612986565b9150509250929050565b600060808201905081810360008301526130b38187612dc7565b905081810360208301526130c78186612dc7565b90506130d660408301856129c8565b6130e36060830184612a83565b95945050505050565b600081519050919050565b600082825260208201905092915050565b6000819050602082019050919050565b61312181612aad565b82525050565b60006131338383613118565b60208301905092915050565b6000602082019050919050565b6000613157826130ec565b61316181856130f7565b935061316c83613108565b8060005b8381101561319d5781516131848882613127565b975061318f8361313f565b925050600181019050613170565b5085935050505092915050565b600060208201905081810360008301526131c4818461314c565b905092915050565b60006080820190506131e16000830187612d61565b6131ee6020830186612d61565b6131fb60408301856129c8565b6132086060830184612a83565b95945050505050565b600081519050919050565b600082825260208201905092915050565b6000819050602082019050919050565b6132468161295d565b82525050565b6000613258838361323d565b60208301905092915050565b6000602082019050919050565b600061327c82613211565b613286818561321c565b93506132918361322d565b8060005b838110156132c25781516132a9888261324c565b97506132b483613264565b925050600181019050613295565b5085935050505092915050565b600060208201905081810360008301526132e98184613271565b905092915050565b7f4e487b7100000000000000000000000000000000000000000000000000000000600052604160045260246000fd5b61332982612db6565b810181811067ffffffffffffffff82111715613348576133476132f1565b5b80604052505050565b600061335b612929565b90506133678282613320565b919050565b600067ffffffffffffffff821115613387576133866132f1565b5b602082029050602081019050919050565b600080fd5b600067ffffffffffffffff8211156133b8576133b76132f1565b5b6133c182612db6565b9050602081019050919050565b82818337600083830152505050565b60006133f06133eb8461339d565b613351565b90508281526020810184848401111561340c5761340b613398565b5b6134178482856133ce565b509392505050565b600082601f83011261343457613433612bdd565b5b81356134448482602086016133dd565b91505092915050565b600061346061345b8461336c565b613351565b9050808382526020820190506020840283018581111561348357613482612be7565b5b835b818110156134ca57803567ffffffffffffffff8111156134a8576134a7612bdd565b5b8086016134b5898261341f565b85526020850194505050602081019050613485565b5050509392505050565b600082601f8301126134e9576134e8612bdd565b5b81356134f984826020860161344d565b91505092915050565b60008083601f84011261351857613517612bdd565b5b8235905067ffffffffffffffff81111561353557613534612be2565b5b60208301915083602082028301111561355157613550612be7565b5b9250929050565b600080600080600080600060c0888a03121561357757613576612933565b5b60006135858a828b01612ace565b975050602088013567ffffffffffffffff8111156135a6576135a5612938565b5b6135b28a828b016134d4565b965050604088013567ffffffffffffffff8111156135d3576135d2612938565b5b6135df8a828b01613502565b9550955050606088013567ffffffffffffffff81111561360257613601612938565b5b61360e8a828b016134d4565b935050608061361f8a828b01612ace565b92505060a06136308a828b01612ace565b91505092959891949750929550565b7f4e6f7420746865206275636b6574206f776e6572000000000000000000000000600082015250565b6000613675601483612d7b565b91506136808261363f565b602082019050919050565b600060208201905081810360008301526136a481613668565b9050919050565b7f4d61696e20616c726561647920626f6e64656400000000000000000000000000600082015250565b60006136e1601383612d7b565b91506136ec826136ab565b602082019050919050565b60006020820190508181036000830152613710816136d4565b9050919050565b7f41504920616c726561647920626f6e6465640000000000000000000000000000600082015250565b600061374d601283612d7b565b915061375882613717565b602082019050919050565b6000602082019050818103600083015261377c81613740565b9050919050565b7f4d61696e20616e64204150492063616e6e6f74206265207468652073616d6500600082015250565b60006137b9601f83612d7b565b91506137c482613783565b602082019050919050565b600060208201905081810360008301526137e8816137ac565b9050919050565b600060408201905061380460008301856129c8565b61381160208301846129c8565b9392505050565b7f416363657373436f6e74726f6c3a2063616e206f6e6c792072656e6f756e636560008201527f20726f6c657320666f722073656c660000000000000000000000000000000000602082015250565b6000613874602f83612d7b565b915061387f82613818565b604082019050919050565b600060208201905081810360008301526138a381613867565b9050919050565b7f4275636b657420494420616c7265616479207573656400000000000000000000600082015250565b60006138e0601683612d7b565b91506138eb826138aa565b602082019050919050565b6000602082019050818103600083015261390f816138d3565b9050919050565b600082905092915050565b7f4e487b7100000000000000000000000000000000000000000000000000000000600052602260045260246000fd5b6000600282049050600182168061396857607f821691505b60208210810361397b5761397a613921565b5b50919050565b60008190508160005260206000209050919050565b60006020601f8301049050919050565b600082821b905092915050565b6000600883026139e37fffffffffffffffffffffffffffffffffffffffffffffffffffffffffffffffff826139a6565b6139ed86836139a6565b95508019841693508086168417925050509392505050565b6000819050919050565b6000613a2a613a25613a2084612aad565b613a05565b612aad565b9050919050565b6000819050919050565b613a4483613a0f565b613a58613a5082613a31565b8484546139b3565b825550505050565b600090565b613a6d613a60565b613a78818484613a3b565b505050565b5b81811015613a9c57613a91600082613a65565b600181019050613a7e565b5050565b601f821115613ae157613ab281613981565b613abb84613996565b81016020851015613aca578190505b613ade613ad685613996565b830182613a7d565b50505b505050565b600082821c905092915050565b6000613b0460001984600802613ae6565b1980831691505092915050565b6000613b1d8383613af3565b9150826002028217905092915050565b613b378383613916565b67ffffffffffffffff811115613b5057613b4f6132f1565b5b613b5a8254613950565b613b65828285613aa0565b6000601f831160018114613b945760008415613b82578287013590505b613b8c8582613b11565b865550613bf4565b601f198416613ba286613981565b60005b82811015613bca57848901358255600182019150602085019450602081019050613ba5565b86831015613be75784890135613be3601f891682613af3565b8355505b6001600288020188555050505b50505050505050565b6000604082019050613c126000830185612d61565b613c1f60208301846129c8565b9392505050565b7f4275636b65742069732064656163746976617465640000000000000000000000600082015250565b6000613c5c601583612d7b565b9150613c6782613c26565b602082019050919050565b60006020820190508181036000830152613c8b81613c4f565b9050919050565b6000604082019050613ca76000830185612d61565b613cb46020830184612d61565b9392505050565b7f496e697469616c697a61626c653a20636f6e747261637420697320616c72656160008201527f647920696e697469616c697a6564000000000000000000000000000000000000602082015250565b6000613d17602e83612d7b565b9150613d2282613cbb565b604082019050919050565b60006020820190508181036000830152613d4681613d0a565b9050919050565b6000819050919050565b600060ff82169050919050565b6000613d7f613d7a613d7584613d4d565b613a05565b613d57565b9050919050565b613d8f81613d64565b82525050565b6000602082019050613daa6000830184613d86565b92915050565b7f4e6f742074686520706f6c696379206f776e6572000000000000000000000000600082015250565b6000613de6601483612d7b565b9150613df182613db0565b602082019050919050565b60006020820190508181036000830152613e1581613dd9565b9050919050565b7f506f6c6963792069732064656163746976617465640000000000000000000000600082015250565b6000613e52601583612d7b565b9150613e5d82613e1c565b602082019050919050565b60006020820190508181036000830152613e8181613e45565b9050919050565b7f506f6c69637920494420616c7265616479207573656400000000000000000000600082015250565b6000613ebe601683612d7b565b9150613ec982613e88565b602082019050919050565b60006020820190508181036000830152613eed81613eb1565b9050919050565b7f496e697469616c697a61626c653a20636f6e7472616374206973206e6f74206960008201527f6e697469616c697a696e67000000000000000000000000000000000000000000602082015250565b6000613f50602b83612d7b565b9150613f5b82613ef4565b604082019050919050565b60006020820190508181036000830152613f7f81613f43565b9050919050565b600081905092915050565b7f416363657373436f6e74726f6c3a206163636f756e7420000000000000000000600082015250565b6000613fc7601783613f86565b9150613fd282613f91565b601782019050919050565b6000613fe882612d70565b613ff28185613f86565b9350614002818560208601612d8c565b80840191505092915050565b7f206973206d697373696e6720726f6c6520000000000000000000000000000000600082015250565b6000614044601183613f86565b915061404f8261400e565b601182019050919050565b600061406582613fba565b91506140718285613fdd565b915061407c82614037565b91506140888284613fdd565b91508190509392505050565b600060208201905081810360008301526140ae8184612dc7565b905092915050565b7f4e487b7100000000000000000000000000000000000000000000000000000000600052601160045260246000fd5b60006140f082612aad565b91506140fb83612aad565b925082820261410981612aad565b915082820484148315176141205761411f6140b6565b5b5092915050565b600061413282612aad565b915061413d83612aad565b9250828201905080821115614155576141546140b6565b5b92915050565b7f4e487b7100000000000000000000000000000000000000000000000000000000600052603260045260246000fd5b600061419582612aad565b9150600082036141a8576141a76140b6565b5b600182039050919050565b7f537472696e67733a20686578206c656e67746820696e73756666696369656e74600082015250565b60006141e9602083612d7b565b91506141f4826141b3565b602082019050919050565b60006020820190508181036000830152614218816141dc565b9050919050565b61422882612d70565b67ffffffffffffffff811115614241576142406132f1565b5b61424b8254613950565b614256828285613aa0565b600060209050601f8311600181146142895760008415614277578287015190505b6142818582613b11565b8655506142e9565b601f19841661429786613981565b60005b828110156142bf5784890151825560018201915060208501945060208101905061429a565b868310156142dc57848901516142d8601f891682613af3565b8355505b6001600288020188555050505b50505050505056fea264697066735822122056c83250b7cc2bb9676ebc1c56890829578af8c8fdcfb3e6f8197090d627627064736f6c63430008130033",
  "linkReferences": {},
  "deployedLinkReferences": {}
}