{
  "_format": "hh-sol-artifact-1",
  "contractName": "NToken",
  "sourceName": "contracts/NToken.sol",
  "abi": [
    {
      "inputs": [],
      "stateMutability": "nonpayable",
      "type": "constructor"
    },
    {
      "anonymous": false,
      "inputs": [
        {
          "indexed": true,
          "internalType": "address",
          "name": "owner",
          "type": "address"
        },
        {
          "indexed": true,
          "internalType": "address",
          "name": "spender",
          "type": "address"
        },
        {
          "indexed": false,
          "internalType": "uint256",
          "name": "value",
          "type": "uint256"
        }
      ],
      "name": "Approval",
      "type": "event"
    },
    {
      "anonymous": false,
      "inputs": [
        {
          "indexed": false,
          "internalType": "uint8",
          "name": "version",
          "type": "uint8"
        }
      ],
      "name": "Initialized",
      "type": "event"
    },
    {
      "anonymous": false,
      "inputs": [
        {
          "indexed": true,
          "internalType": "bytes32",
          "name": "role",
          "type": "bytes32"
        },
        {
          "indexed": true,
          "internalType": "bytes32",
          "name": "previousAdminRole",
          "type": "bytes32"
        },
        {
          "indexed": true,
          "internalType": "bytes32",
          "name": "newAdminRole",
          "type": "bytes32"
        }
      ],
      "name": "RoleAdminChanged",
      "type": "event"
    },
    {
      "anonymous": false,
      "inputs": [
        {
          "indexed": true,
          "internalType": "bytes32",
          "name": "role",
          "type": "bytes32"
        },
        {
          "indexed": true,
          "internalType": "address",
          "name": "account",
          "type": "address"
        },
        {
          "indexed": true,
          "internalType": "address",
          "name": "sender",
          "type": "address"
        }
      ],
      "name": "RoleGranted",
      "type": "event"
    },
    {
      "anonymous": false,
      "inputs": [
        {
          "indexed": true,
          "internalType": "bytes32",
          "name": "role",
          "type": "bytes32"
        },
        {
          "indexed": true,
          "internalType": "address",
          "name": "account",
          "type": "address"
        },
        {
          "indexed": true,
          "internalType": "address",
          "name": "sender",
          "type": "address"
        }
      ],
      "name": "RoleRevoked",
      "type": "event"
    },
    {
      "anonymous": false,
      "inputs": [
        {
          "indexed": true,
          "internalType": "address",
          "name": "from",
          "type": "address"
        },
        {
          "indexed": true,
          "internalType": "address",
          "name": "to",
          "type": "address"
        },
        {
          "indexed": false,
          "internalType": "uint256",
          "name": "value",
          "type": "uint256"
        }
      ],
      "name": "Transfer",
      "type": "event"
    },
    {
      "inputs": [],
      "name": "DEFAULT_ADMIN_ROLE",
      "outputs": [
        {
          "internalType": "bytes32",
          "name": "",
          "type": "bytes32"
        }
      ],
      "stateMutability": "view",
      "type": "function"
    },
    {
      "inputs": [],
      "name": "MINTER_ROLE",
      "outputs": [
        {
          "internalType": "bytes32",
          "name": "",
          "type": "bytes32"
        }
      ],
      "stateMutability": "view",
      "type": "function"
    },
    {
      "inputs": [
        {
          "internalType": "address",
          "name": "to",
          "type": "address"
        },
        {
          "internalType": "uint256",
          "name": "amount",
          "type": "uint256"
        }
      ],
      "name": "airdrop",
      "outputs": [],
      "stateMutability": "nonpayable",
      "type": "function"
    },
    {
      "inputs": [
        {
          "internalType": "address",
          "name": "owner",
          "type": "address"
        },
        {
          "internalType": "address",
          "name": "spender",
          "type": "address"
        }
      ],
      "name": "allowance",
      "outputs": [
        {
          "internalType": "uint256",
          "name": "",
          "type": "uint256"
        }
      ],
      "stateMutability": "view",
      "type": "function"
    },
    {
      "inputs": [
        {
          "internalType": "address",
          "name": "spender",
          "type": "address"
        },
        {
          "internalType": "uint256",
          "name": "amount",
          "type": "uint256"
        }
      ],
      "name": "approve",
      "outputs": [
        {
          "internalType": "bool",
          "name": "",
          "type": "bool"
        }
      ],
      "stateMutability": "nonpayable",
      "type": "function"
    },
    {
      "inputs": [
        {
          "internalType": "address",
          "name": "account",
          "type": "address"
        }
      ],
      "name": "balanceOf",
      "outputs": [
        {
          "internalType": "uint256",
          "name": "",
          "type": "uint256"
        }
      ],
      "stateMutability": "view",
      "type": "function"
    },
    {
      "inputs": [],
      "name": "decimals",
      "outputs": [
        {
          "internalType": "uint8",
          "name": "",
          "type": "uint8"
        }
      ],
      "stateMutability": "view",
      "type": "function"
    },
    {
      "inputs": [
        {
          "internalType": "address",
          "name": "spender",
          "type": "address"
        },
        {
          "internalType": "uint256",
          "name": "subtractedValue",
          "type": "uint256"
        }
      ],
      "name": "decreaseAllowance",
      "outputs": [
        {
          "internalType": "bool",
          "name": "",
          "type": "bool"
        }
      ],
      "stateMutability": "nonpayable",
      "type": "function"
    },
    {
      "inputs": [
        {
          "internalType": "bytes32",
          "name": "role",
          "type": "bytes32"
        }
      ],
      "name": "getRoleAdmin",
      "outputs": [
        {
          "internalType": "bytes32",
          "name": "",
          "type": "bytes32"
        }
      ],
      "stateMutability": "view",
      "type": "function"
    },
    {
      "inputs": [
        {
          "internalType": "bytes32",
          "name": "role",
          "type": "bytes32"
        },
        {
          "internalType": "address",
          "name": "account",
          "type": "address"
        }
      ],
      "name": "grantRole",
      "outputs": [],
      "stateMutability": "nonpayable",
      "type": "function"
    },
    {
      "inputs": [
        {
          "internalType": "bytes32",
          "name": "role",
          "type": "bytes32"
        },
        {
          "internalType": "address",
          "name": "account",
          "type": "address"
        }
      ],
      "name": "hasRole",
      "outputs": [
        {
          "internalType": "bool",
          "name": "",
          "type": "bool"
        }
      ],
      "stateMutability": "view",
      "type": "function"
    },
    {
      "inputs": [
        {
          "internalType": "address",
          "name": "spender",
          "type": "address"
        },
        {
          "internalType": "uint256",
          "name": "addedValue",
          "type": "uint256"
        }
      ],
      "name": "increaseAllowance",
      "outputs": [
        {
          "internalType": "bool",
          "name": "",
          "type": "bool"
        }
      ],
      "stateMutability": "nonpayable",
      "type": "function"
    },
    {
      "inputs": [],
      "name": "initialize",
      "outputs": [],
      "stateMutability": "nonpayable",
      "type": "function"
    },
    {
      "inputs": [],
      "name": "name",
      "outputs": [
        {
          "internalType": "string",
          "name": "",
          "type": "string"
        }
      ],
      "stateMutability": "view",
      "type": "function"
    },
    {
      "inputs": [
        {
          "internalType": "bytes32",
          "name": "role",
          "type": "bytes32"
        },
        {
          "internalType": "address",
          "name": "account",
          "type": "address"
        }
      ],
      "name": "renounceRole",
      "outputs": [],
      "stateMutability": "nonpayable",
      "type": "function"
    },
    {
      "inputs": [
        {
          "internalType": "bytes32",
          "name": "role",
          "type": "bytes32"
        },
        {
          "internalType": "address",
          "name": "account",
          "type": "address"
        }
      ],
      "name": "revokeRole",
      "outputs": [],
      "stateMutability": "nonpayable",
      "type": "function"
    },
    {
      "inputs": [
        {
          "internalType": "bytes4",
          "name": "interfaceId",
          "type": "bytes4"
        }
      ],
      "name": "supportsInterface",
      "outputs": [
        {
          "internalType": "bool",
          "name": "",
          "type": "bool"
        }
      ],
      "stateMutability": "view",
      "type": "function"
    },
    {
      "inputs": [],
      "name": "symbol",
      "outputs": [
        {
          "internalType": "string",
          "name": "",
          "type": "string"
        }
      ],
      "stateMutability": "view",
      "type": "function"
    },
    {
      "inputs": [],
      "name": "totalSupply",
      "outputs": [
        {
          "internalType": "uint256",
          "name": "",
          "type": "uint256"
        }
      ],
      "stateMutability": "view",
      "type": "function"
    },
    {
      "inputs": [
        {
          "internalType": "address",
          "name": "to",
          "type": "address"
        },
        {
          "internalType": "uint256",
          "name": "amount",
          "type": "uint256"
        }
      ],
      "name": "transfer",
      "outputs": [
        {
          "internalType": "bool",
          "name": "",
          "type": "bool"
        }
      ],
      "stateMutability": "nonpayable",
      "type": "function"
    },
    {
      "inputs": [
        {
          "internalType": "address",
          "name": "from",
          "type": "address"
        },
        {
          "internalType": "address",
          "name": "to",
          "type": "address"
        },
        {
          "internalType": "uint256",
          "name": "amount",
          "type": "uint256"
        }
      ],
      "name": "transferFrom",
      "outputs": [
        {
          "internalType": "bool",
          "name": "",
          "type": "bool"
        }
      ],
      "stateMutability": "nonpayable",
      "type": "function"
    }
  ],
  "bytecode": "0x60806040523480156200001157600080fd5b50620000226200002860201b60201c565b620001d2565b600060019054906101000a900460ff16156200007b576040517f08c379a0000000000000000000000000000000000000000000000000000000008152600401620000729062000175565b60405180910390fd5b60ff801660008054906101000a900460ff1660ff1614620000ec5760ff6000806101000a81548160ff021916908360ff1602179055507f7f26b83ff96e1f2b6a682f133852f6798a09c465da95921460cefb384740249860ff604051620000e39190620001b5565b60405180910390a15b565b600082825260208201905092915050565b7f496e697469616c697a61626c653a20636f6e747261637420697320696e69746960008201527f616c697a696e6700000000000000000000000000000000000000000000000000602082015250565b60006200015d602783620000ee565b91506200016a82620000ff565b604082019050919050565b6000602082019050818103600083015262000190816200014e565b9050919050565b600060ff82169050919050565b620001af8162000197565b82525050565b6000602082019050620001cc6000830184620001a4565b92915050565b61287380620001e26000396000f3fe608060405234801561001057600080fd5b50600436106101375760003560e01c806370a08231116100b8578063a217fddf1161007c578063a217fddf14610362578063a457c2d714610380578063a9059cbb146103b0578063d5391393146103e0578063d547741f146103fe578063dd62ed3e1461041a57610137565b806370a08231146102be5780638129fc1c146102ee5780638ba4cc3c146102f857806391d148541461031457806395d89b411461034457610137565b8063248a9ca3116100ff578063248a9ca3146102085780632f2ff15d14610238578063313ce5671461025457806336568abe14610272578063395093511461028e57610137565b806301ffc9a71461013c57806306fdde031461016c578063095ea7b31461018a57806318160ddd146101ba57806323b872dd146101d8575b600080fd5b61015660048036038101906101519190611892565b61044a565b60405161016391906118da565b60405180910390f35b6101746104c4565b6040516101819190611985565b60405180910390f35b6101a4600480360381019061019f9190611a3b565b610556565b6040516101b191906118da565b60405180910390f35b6101c2610579565b6040516101cf9190611a8a565b60405180910390f35b6101f260048036038101906101ed9190611aa5565b610583565b6040516101ff91906118da565b60405180910390f35b610222600480360381019061021d9190611b2e565b6105b2565b60405161022f9190611b6a565b60405180910390f35b610252600480360381019061024d9190611b85565b6105d2565b005b61025c6105f3565b6040516102699190611be1565b60405180910390f35b61028c60048036038101906102879190611b85565b6105fc565b005b6102a860048036038101906102a39190611a3b565b61067f565b6040516102b591906118da565b60405180910390f35b6102d860048036038101906102d39190611bfc565b6106b6565b6040516102e59190611a8a565b60405180910390f35b6102f66106ff565b005b610312600480360381019061030d9190611a3b565b6108e8565b005b61032e60048036038101906103299190611b85565b610921565b60405161033b91906118da565b60405180910390f35b61034c61098c565b6040516103599190611985565b60405180910390f35b61036a610a1e565b6040516103779190611b6a565b60405180910390f35b61039a60048036038101906103959190611a3b565b610a25565b6040516103a791906118da565b60405180910390f35b6103ca60048036038101906103c59190611a3b565b610a9c565b6040516103d791906118da565b60405180910390f35b6103e8610abf565b6040516103f59190611b6a565b60405180910390f35b61041860048036038101906104139190611b85565b610ae3565b005b610434600480360381019061042f9190611c29565b610b04565b6040516104419190611a8a565b60405180910390f35b60007f7965db0b000000000000000000000000000000000000000000000000000000007bffffffffffffffffffffffffffffffffffffffffffffffffffffffff1916827bffffffffffffffffffffffffffffffffffffffffffffffffffffffff191614806104bd57506104bc82610b8b565b5b9050919050565b6060603680546104d390611c98565b80601f01602080910402602001604051908101604052809291908181526020018280546104ff90611c98565b801561054c5780601f106105215761010080835404028352916020019161054c565b820191906000526020600020905b81548152906001019060200180831161052f57829003601f168201915b5050505050905090565b600080610561610bf5565b905061056e818585610bfd565b600191505092915050565b6000603554905090565b60008061058e610bf5565b905061059b858285610dc6565b6105a6858585610e52565b60019150509392505050565b600060976000838152602001908152602001600020600101549050919050565b6105db826105b2565b6105e4816110cb565b6105ee83836110df565b505050565b60006012905090565b610604610bf5565b73ffffffffffffffffffffffffffffffffffffffff168173ffffffffffffffffffffffffffffffffffffffff1614610671576040517f08c379a000000000000000000000000000000000000000000000000000000000815260040161066890611d3b565b60405180910390fd5b61067b82826111c0565b5050565b60008061068a610bf5565b90506106ab81858561069c8589610b04565b6106a69190611d8a565b610bfd565b600191505092915050565b6000603360008373ffffffffffffffffffffffffffffffffffffffff1673ffffffffffffffffffffffffffffffffffffffff168152602001908152602001600020549050919050565b60008060019054906101000a900460ff161590508080156107305750600160008054906101000a900460ff1660ff16105b8061075d575061073f306112a2565b15801561075c5750600160008054906101000a900460ff1660ff16145b5b61079c576040517f08c379a000000000000000000000000000000000000000000000000000000000815260040161079390611e30565b60405180910390fd5b60016000806101000a81548160ff021916908360ff16021790555080156107d9576001600060016101000a81548160ff0219169083151502179055505b61084d6040518060400160405280600681526020017f4e546f6b656e00000000000000000000000000000000000000000000000000008152506040518060400160405280600181526020017f4e000000000000000000000000000000000000000000000000000000000000008152506112c5565b610855611322565b6108626000801b336110df565b61088c7f9f2df0fed2c77648de5860a4cc508cd0818c85b8b8a1ab4ceeef8d981c8956a6336110df565b80156108e55760008060016101000a81548160ff0219169083151502179055507f7f26b83ff96e1f2b6a682f133852f6798a09c465da95921460cefb384740249860016040516108dc9190611e95565b60405180910390a15b50565b7f9f2df0fed2c77648de5860a4cc508cd0818c85b8b8a1ab4ceeef8d981c8956a6610912816110cb565b61091c8383611373565b505050565b60006097600084815260200190815260200160002060000160008373ffffffffffffffffffffffffffffffffffffffff1673ffffffffffffffffffffffffffffffffffffffff16815260200190815260200160002060009054906101000a900460ff16905092915050565b60606037805461099b90611c98565b80601f01602080910402602001604051908101604052809291908181526020018280546109c790611c98565b8015610a145780601f106109e957610100808354040283529160200191610a14565b820191906000526020600020905b8154815290600101906020018083116109f757829003601f168201915b5050505050905090565b6000801b81565b600080610a30610bf5565b90506000610a3e8286610b04565b905083811015610a83576040517f08c379a0000000000000000000000000000000000000000000000000000000008152600401610a7a90611f22565b60405180910390fd5b610a908286868403610bfd565b60019250505092915050565b600080610aa7610bf5565b9050610ab4818585610e52565b600191505092915050565b7f9f2df0fed2c77648de5860a4cc508cd0818c85b8b8a1ab4ceeef8d981c8956a681565b610aec826105b2565b610af5816110cb565b610aff83836111c0565b505050565b6000603460008473ffffffffffffffffffffffffffffffffffffffff1673ffffffffffffffffffffffffffffffffffffffff16815260200190815260200160002060008373ffffffffffffffffffffffffffffffffffffffff1673ffffffffffffffffffffffffffffffffffffffff16815260200190815260200160002054905092915050565b60007f01ffc9a7000000000000000000000000000000000000000000000000000000007bffffffffffffffffffffffffffffffffffffffffffffffffffffffff1916827bffffffffffffffffffffffffffffffffffffffffffffffffffffffff1916149050919050565b600033905090565b600073ffffffffffffffffffffffffffffffffffffffff168373ffffffffffffffffffffffffffffffffffffffff1603610c6c576040517f08c379a0000000000000000000000000000000000000000000000000000000008152600401610c6390611fb4565b60405180910390fd5b600073ffffffffffffffffffffffffffffffffffffffff168273ffffffffffffffffffffffffffffffffffffffff1603610cdb576040517f08c379a0000000000000000000000000000000000000000000000000000000008152600401610cd290612046565b60405180910390fd5b80603460008573ffffffffffffffffffffffffffffffffffffffff1673ffffffffffffffffffffffffffffffffffffffff16815260200190815260200160002060008473ffffffffffffffffffffffffffffffffffffffff1673ffffffffffffffffffffffffffffffffffffffff168152602001908152602001600020819055508173ffffffffffffffffffffffffffffffffffffffff168373ffffffffffffffffffffffffffffffffffffffff167f8c5be1e5ebec7d5bd14f71427d1e84f3dd0314c0f7b2291e5b200ac8c7c3b92583604051610db99190611a8a565b60405180910390a3505050565b6000610dd28484610b04565b90507fffffffffffffffffffffffffffffffffffffffffffffffffffffffffffffffff8114610e4c5781811015610e3e576040517f08c379a0000000000000000000000000000000000000000000000000000000008152600401610e35906120b2565b60405180910390fd5b610e4b8484848403610bfd565b5b50505050565b600073ffffffffffffffffffffffffffffffffffffffff168373ffffffffffffffffffffffffffffffffffffffff1603610ec1576040517f08c379a0000000000000000000000000000000000000000000000000000000008152600401610eb890612144565b60405180910390fd5b600073ffffffffffffffffffffffffffffffffffffffff168273ffffffffffffffffffffffffffffffffffffffff1603610f30576040517f08c379a0000000000000000000000000000000000000000000000000000000008152600401610f27906121d6565b60405180910390fd5b610f3b8383836114ca565b6000603360008573ffffffffffffffffffffffffffffffffffffffff1673ffffffffffffffffffffffffffffffffffffffff16815260200190815260200160002054905081811015610fc2576040517f08c379a0000000000000000000000000000000000000000000000000000000008152600401610fb990612268565b60405180910390fd5b818103603360008673ffffffffffffffffffffffffffffffffffffffff1673ffffffffffffffffffffffffffffffffffffffff1681526020019081526020016000208190555081603360008573ffffffffffffffffffffffffffffffffffffffff1673ffffffffffffffffffffffffffffffffffffffff168152602001908152602001600020600082825401925050819055508273ffffffffffffffffffffffffffffffffffffffff168473ffffffffffffffffffffffffffffffffffffffff167fddf252ad1be2c89b69c2b068fc378daa952ba7f163c4a11628f55a4df523b3ef846040516110b29190611a8a565b60405180910390a36110c58484846114cf565b50505050565b6110dc816110d7610bf5565b6114d4565b50565b6110e98282610921565b6111bc5760016097600084815260200190815260200160002060000160008373ffffffffffffffffffffffffffffffffffffffff1673ffffffffffffffffffffffffffffffffffffffff16815260200190815260200160002060006101000a81548160ff021916908315150217905550611161610bf5565b73ffffffffffffffffffffffffffffffffffffffff168173ffffffffffffffffffffffffffffffffffffffff16837f2f8788117e7eff1d82e926ec794901d17c78024a50270940304540a733656f0d60405160405180910390a45b5050565b6111ca8282610921565b1561129e5760006097600084815260200190815260200160002060000160008373ffffffffffffffffffffffffffffffffffffffff1673ffffffffffffffffffffffffffffffffffffffff16815260200190815260200160002060006101000a81548160ff021916908315150217905550611243610bf5565b73ffffffffffffffffffffffffffffffffffffffff168173ffffffffffffffffffffffffffffffffffffffff16837ff6391f5c32d9c69d2a47ea670b442974b53935d1edc7fd64eb21e047a839171b60405160405180910390a45b5050565b6000808273ffffffffffffffffffffffffffffffffffffffff163b119050919050565b600060019054906101000a900460ff16611314576040517f08c379a000000000000000000000000000000000000000000000000000000000815260040161130b906122fa565b60405180910390fd5b61131e8282611559565b5050565b600060019054906101000a900460ff16611371576040517f08c379a0000000000000000000000000000000000000000000000000000000008152600401611368906122fa565b60405180910390fd5b565b600073ffffffffffffffffffffffffffffffffffffffff168273ffffffffffffffffffffffffffffffffffffffff16036113e2576040517f08c379a00000000000000000000000000000000000000000000000000000000081526004016113d990612366565b60405180910390fd5b6113ee600083836114ca565b80603560008282546114009190611d8a565b9250508190555080603360008473ffffffffffffffffffffffffffffffffffffffff1673ffffffffffffffffffffffffffffffffffffffff168152602001908152602001600020600082825401925050819055508173ffffffffffffffffffffffffffffffffffffffff16600073ffffffffffffffffffffffffffffffffffffffff167fddf252ad1be2c89b69c2b068fc378daa952ba7f163c4a11628f55a4df523b3ef836040516114b29190611a8a565b60405180910390a36114c6600083836114cf565b5050565b505050565b505050565b6114de8282610921565b611555576114eb816115cc565b6114f98360001c60206115f9565b60405160200161150a92919061245a565b6040516020818303038152906040526040517f08c379a000000000000000000000000000000000000000000000000000000000815260040161154c9190611985565b60405180910390fd5b5050565b600060019054906101000a900460ff166115a8576040517f08c379a000000000000000000000000000000000000000000000000000000000815260040161159f906122fa565b60405180910390fd5b81603690816115b79190612665565b5080603790816115c79190612665565b505050565b60606115f28273ffffffffffffffffffffffffffffffffffffffff16601460ff166115f9565b9050919050565b60606000600283600261160c9190612737565b6116169190611d8a565b67ffffffffffffffff81111561162f5761162e612494565b5b6040519080825280601f01601f1916602001820160405280156116615781602001600182028036833780820191505090505b5090507f30000000000000000000000000000000000000000000000000000000000000008160008151811061169957611698612779565b5b60200101907effffffffffffffffffffffffffffffffffffffffffffffffffffffffffffff1916908160001a9053507f7800000000000000000000000000000000000000000000000000000000000000816001815181106116fd576116fc612779565b5b60200101907effffffffffffffffffffffffffffffffffffffffffffffffffffffffffffff1916908160001a9053506000600184600261173d9190612737565b6117479190611d8a565b90505b60018111156117e7577f3031323334353637383961626364656600000000000000000000000000000000600f86166010811061178957611788612779565b5b1a60f81b8282815181106117a05761179f612779565b5b60200101907effffffffffffffffffffffffffffffffffffffffffffffffffffffffffffff1916908160001a905350600485901c9450806117e0906127a8565b905061174a565b506000841461182b576040517f08c379a00000000000000000000000000000000000000000000000000000000081526004016118229061281d565b60405180910390fd5b8091505092915050565b600080fd5b60007fffffffff0000000000000000000000000000000000000000000000000000000082169050919050565b61186f8161183a565b811461187a57600080fd5b50565b60008135905061188c81611866565b92915050565b6000602082840312156118a8576118a7611835565b5b60006118b68482850161187d565b91505092915050565b60008115159050919050565b6118d4816118bf565b82525050565b60006020820190506118ef60008301846118cb565b92915050565b600081519050919050565b600082825260208201905092915050565b60005b8381101561192f578082015181840152602081019050611914565b60008484015250505050565b6000601f19601f8301169050919050565b6000611957826118f5565b6119618185611900565b9350611971818560208601611911565b61197a8161193b565b840191505092915050565b6000602082019050818103600083015261199f818461194c565b905092915050565b600073ffffffffffffffffffffffffffffffffffffffff82169050919050565b60006119d2826119a7565b9050919050565b6119e2816119c7565b81146119ed57600080fd5b50565b6000813590506119ff816119d9565b92915050565b6000819050919050565b611a1881611a05565b8114611a2357600080fd5b50565b600081359050611a3581611a0f565b92915050565b60008060408385031215611a5257611a51611835565b5b6000611a60858286016119f0565b9250506020611a7185828601611a26565b9150509250929050565b611a8481611a05565b82525050565b6000602082019050611a9f6000830184611a7b565b92915050565b600080600060608486031215611abe57611abd611835565b5b6000611acc868287016119f0565b9350506020611add868287016119f0565b9250506040611aee86828701611a26565b9150509250925092565b6000819050919050565b611b0b81611af8565b8114611b1657600080fd5b50565b600081359050611b2881611b02565b92915050565b600060208284031215611b4457611b43611835565b5b6000611b5284828501611b19565b91505092915050565b611b6481611af8565b82525050565b6000602082019050611b7f6000830184611b5b565b92915050565b60008060408385031215611b9c57611b9b611835565b5b6000611baa85828601611b19565b9250506020611bbb858286016119f0565b9150509250929050565b600060ff82169050919050565b611bdb81611bc5565b82525050565b6000602082019050611bf66000830184611bd2565b92915050565b600060208284031215611c1257611c11611835565b5b6000611c20848285016119f0565b91505092915050565b60008060408385031215611c4057611c3f611835565b5b6000611c4e858286016119f0565b9250506020611c5f858286016119f0565b9150509250929050565b7f4e487b7100000000000000000000000000000000000000000000000000000000600052602260045260246000fd5b60006002820490506001821680611cb057607f821691505b602082108103611cc357611cc2611c69565b5b50919050565b7f416363657373436f6e74726f6c3a2063616e206f6e6c792072656e6f756e636560008201527f20726f6c657320666f722073656c660000000000000000000000000000000000602082015250565b6000611d25602f83611900565b9150611d3082611cc9565b604082019050919050565b60006020820190508181036000830152611d5481611d18565b9050919050565b7f4e487b7100000000000000000000000000000000000000000000000000000000600052601160045260246000fd5b6000611d9582611a05565b9150611da083611a05565b9250828201905080821115611db857611db7611d5b565b5b92915050565b7f496e697469616c697a61626c653a20636f6e747261637420697320616c72656160008201527f647920696e697469616c697a6564000000000000000000000000000000000000602082015250565b6000611e1a602e83611900565b9150611e2582611dbe565b604082019050919050565b60006020820190508181036000830152611e4981611e0d565b9050919050565b6000819050919050565b6000819050919050565b6000611e7f611e7a611e7584611e50565b611e5a565b611bc5565b9050919050565b611e8f81611e64565b82525050565b6000602082019050611eaa6000830184611e86565b92915050565b7f45524332303a2064656372656173656420616c6c6f77616e63652062656c6f7760008201527f207a65726f000000000000000000000000000000000000000000000000000000602082015250565b6000611f0c602583611900565b9150611f1782611eb0565b604082019050919050565b60006020820190508181036000830152611f3b81611eff565b9050919050565b7f45524332303a20617070726f76652066726f6d20746865207a65726f2061646460008201527f7265737300000000000000000000000000000000000000000000000000000000602082015250565b6000611f9e602483611900565b9150611fa982611f42565b604082019050919050565b60006020820190508181036000830152611fcd81611f91565b9050919050565b7f45524332303a20617070726f766520746f20746865207a65726f20616464726560008201527f7373000000000000000000000000000000000000000000000000000000000000602082015250565b6000612030602283611900565b915061203b82611fd4565b604082019050919050565b6000602082019050818103600083015261205f81612023565b9050919050565b7f45524332303a20696e73756666696369656e7420616c6c6f77616e6365000000600082015250565b600061209c601d83611900565b91506120a782612066565b602082019050919050565b600060208201905081810360008301526120cb8161208f565b9050919050565b7f45524332303a207472616e736665722066726f6d20746865207a65726f20616460008201527f6472657373000000000000000000000000000000000000000000000000000000602082015250565b600061212e602583611900565b9150612139826120d2565b604082019050919050565b6000602082019050818103600083015261215d81612121565b9050919050565b7f45524332303a207472616e7366657220746f20746865207a65726f206164647260008201527f6573730000000000000000000000000000000000000000000000000000000000602082015250565b60006121c0602383611900565b91506121cb82612164565b604082019050919050565b600060208201905081810360008301526121ef816121b3565b9050919050565b7f45524332303a207472616e7366657220616d6f756e742065786365656473206260008201527f616c616e63650000000000000000000000000000000000000000000000000000602082015250565b6000612252602683611900565b915061225d826121f6565b604082019050919050565b6000602082019050818103600083015261228181612245565b9050919050565b7f496e697469616c697a61626c653a20636f6e7472616374206973206e6f74206960008201527f6e697469616c697a696e67000000000000000000000000000000000000000000602082015250565b60006122e4602b83611900565b91506122ef82612288565b604082019050919050565b60006020820190508181036000830152612313816122d7565b9050919050565b7f45524332303a206d696e7420746f20746865207a65726f206164647265737300600082015250565b6000612350601f83611900565b915061235b8261231a565b602082019050919050565b6000602082019050818103600083015261237f81612343565b9050919050565b600081905092915050565b7f416363657373436f6e74726f6c3a206163636f756e7420000000000000000000600082015250565b60006123c7601783612386565b91506123d282612391565b601782019050919050565b60006123e8826118f5565b6123f28185612386565b9350612402818560208601611911565b80840191505092915050565b7f206973206d697373696e6720726f6c6520000000000000000000000000000000600082015250565b6000612444601183612386565b915061244f8261240e565b601182019050919050565b6000612465826123ba565b915061247182856123dd565b915061247c82612437565b915061248882846123dd565b91508190509392505050565b7f4e487b7100000000000000000000000000000000000000000000000000000000600052604160045260246000fd5b60008190508160005260206000209050919050565b60006020601f8301049050919050565b600082821b905092915050565b6000600883026125257fffffffffffffffffffffffffffffffffffffffffffffffffffffffffffffffff826124e8565b61252f86836124e8565b95508019841693508086168417925050509392505050565b600061256261255d61255884611a05565b611e5a565b611a05565b9050919050565b6000819050919050565b61257c83612547565b61259061258882612569565b8484546124f5565b825550505050565b600090565b6125a5612598565b6125b0818484612573565b505050565b5b818110156125d4576125c960008261259d565b6001810190506125b6565b5050565b601f821115612619576125ea816124c3565b6125f3846124d8565b81016020851015612602578190505b61261661260e856124d8565b8301826125b5565b50505b505050565b600082821c905092915050565b600061263c6000198460080261261e565b1980831691505092915050565b6000612655838361262b565b9150826002028217905092915050565b61266e826118f5565b67ffffffffffffffff81111561268757612686612494565b5b6126918254611c98565b61269c8282856125d8565b600060209050601f8311600181146126cf57600084156126bd578287015190505b6126c78582612649565b86555061272f565b601f1984166126dd866124c3565b60005b82811015612705578489015182556001820191506020850194506020810190506126e0565b86831015612722578489015161271e601f89168261262b565b8355505b6001600288020188555050505b505050505050565b600061274282611a05565b915061274d83611a05565b925082820261275b81611a05565b9150828204841483151761277257612771611d5b565b5b5092915050565b7f4e487b7100000000000000000000000000000000000000000000000000000000600052603260045260246000fd5b60006127b382611a05565b9150600082036127c6576127c5611d5b565b5b600182039050919050565b7f537472696e67733a20686578206c656e67746820696e73756666696369656e74600082015250565b6000612807602083611900565b9150612812826127d1565b602082019050919050565b60006020820190508181036000830152612836816127fa565b905091905056fea26469706673582212207b997b38c16ea1606d76a485c315df1e42e260ae8bbc49954b62d3347692caf964736f6c63430008130033",
  "linkReferences": {},
  "deployedLinkReferences": {}
}