{
  "_format": "hh-sol-artifact-1",
  "contractName": "QueryManager",
  "sourceName": "contracts/QueryManager.sol",
  "abi": [
    {
      "inputs": [],
      "stateMutability": "nonpayable",
      "type": "constructor"
    },
    {
      "anonymous": false,
      "inputs": [
        {
          "indexed": false,
          "internalType": "uint256",
          "name": "value",
          "type": "uint256"
        },
        {
          "indexed": false,
          "internalType": "address",
          "name": "to",
          "type": "address"
        },
        {
          "indexed": false,
          "internalType": "uint256",
          "name": "queryIndex",
          "type": "uint256"
        }
      ],
      "name": "DistributePay",
      "type": "event"
    },
    {
      "anonymous": false,
      "inputs": [
        {
          "indexed": false,
          "internalType": "address",
          "name": "newRecipient",
          "type": "address"
        },
        {
          "indexed": false,
          "internalType": "uint256",
          "name": "newFee",
          "type": "uint256"
        }
      ],
      "name": "FeeInfoUpdated",
      "type": "event"
    },
    {
      "anonymous": false,
      "inputs": [
        {
          "indexed": false,
          "internalType": "uint8",
          "name": "version",
          "type": "uint8"
        }
      ],
      "name": "Initialized",
      "type": "event"
    },
    {
      "anonymous": false,
      "inputs": [
        {
          "indexed": false,
          "internalType": "uint256",
          "name": "value",
          "type": "uint256"
        },
        {
          "indexed": false,
          "internalType": "address",
          "name": "user",
          "type": "address"
        },
        {
          "indexed": false,
          "internalType": "uint256",
          "name": "queryIndex",
          "type": "uint256"
        }
      ],
      "name": "PaidQuery",
      "type": "event"
    },
    {
      "anonymous": false,
      "inputs": [
        {
          "indexed": false,
          "internalType": "uint256",
          "name": "value",
          "type": "uint256"
        },
        {
          "indexed": false,
          "internalType": "address",
          "name": "user",
          "type": "address"
        },
        {
          "indexed": false,
          "internalType": "uint256",
          "name": "queryIndex",
          "type": "uint256"
        }
      ],
      "name": "RefundQuery",
      "type": "event"
    },
    {
      "anonymous": false,
      "inputs": [
        {
          "indexed": true,
          "internalType": "bytes32",
          "name": "role",
          "type": "bytes32"
        },
        {
          "indexed": true,
          "internalType": "bytes32",
          "name": "previousAdminRole",
          "type": "bytes32"
        },
        {
          "indexed": true,
          "internalType": "bytes32",
          "name": "newAdminRole",
          "type": "bytes32"
        }
      ],
      "name": "RoleAdminChanged",
      "type": "event"
    },
    {
      "anonymous": false,
      "inputs": [
        {
          "indexed": true,
          "internalType": "bytes32",
          "name": "role",
          "type": "bytes32"
        },
        {
          "indexed": true,
          "internalType": "address",
          "name": "account",
          "type": "address"
        },
        {
          "indexed": true,
          "internalType": "address",
          "name": "sender",
          "type": "address"
        }
      ],
      "name": "RoleGranted",
      "type": "event"
    },
    {
      "anonymous": false,
      "inputs": [
        {
          "indexed": true,
          "internalType": "bytes32",
          "name": "role",
          "type": "bytes32"
        },
        {
          "indexed": true,
          "internalType": "address",
          "name": "account",
          "type": "address"
        },
        {
          "indexed": true,
          "internalType": "address",
          "name": "sender",
          "type": "address"
        }
      ],
      "name": "RoleRevoked",
      "type": "event"
    },
    {
      "anonymous": false,
      "inputs": [
        {
          "indexed": false,
          "internalType": "address",
          "name": "user",
          "type": "address"
        },
        {
          "indexed": false,
          "internalType": "uint256",
          "name": "queryIndex",
          "type": "uint256"
        }
      ],
      "name": "SuccessfulQuery",
      "type": "event"
    },
    {
      "inputs": [],
      "name": "DEFAULT_ADMIN_ROLE",
      "outputs": [
        {
          "internalType": "bytes32",
          "name": "",
          "type": "bytes32"
        }
      ],
      "stateMutability": "view",
      "type": "function"
    },
    {
      "inputs": [],
      "name": "PPC_ROLE",
      "outputs": [
        {
          "internalType": "bytes32",
          "name": "",
          "type": "bytes32"
        }
      ],
      "stateMutability": "view",
      "type": "function"
    },
    {
      "inputs": [],
      "name": "currentIndex",
      "outputs": [
        {
          "internalType": "uint256",
          "name": "",
          "type": "uint256"
        }
      ],
      "stateMutability": "view",
      "type": "function"
    },
    {
      "inputs": [],
      "name": "eoaBond",
      "outputs": [
        {
          "internalType": "contract EoaBond",
          "name": "",
          "type": "address"
        }
      ],
      "stateMutability": "view",
      "type": "function"
    },
    {
      "inputs": [],
      "name": "feeBps",
      "outputs": [
        {
          "internalType": "uint256",
          "name": "",
          "type": "uint256"
        }
      ],
      "stateMutability": "view",
      "type": "function"
    },
    {
      "inputs": [],
      "name": "feeRecipient",
      "outputs": [
        {
          "internalType": "address",
          "name": "",
          "type": "address"
        }
      ],
      "stateMutability": "view",
      "type": "function"
    },
    {
      "inputs": [
        {
          "internalType": "address",
          "name": "user",
          "type": "address"
        }
      ],
      "name": "getAllUserQueries",
      "outputs": [
        {
          "components": [
            {
              "internalType": "uint256",
              "name": "queryIndex",
              "type": "uint256"
            },
            {
              "internalType": "string",
              "name": "ppcCmd",
              "type": "string"
            },
            {
              "internalType": "string",
              "name": "result",
              "type": "string"
            },
            {
              "internalType": "enum QueryManager.QueryStatus",
              "name": "status",
              "type": "uint8"
            },
            {
              "internalType": "uint256",
              "name": "totalPaid",
              "type": "uint256"
            },
            {
              "internalType": "uint256[]",
              "name": "bucketIds",
              "type": "uint256[]"
            },
            {
              "internalType": "uint256[]",
              "name": "policyIndexes",
              "type": "uint256[]"
            }
          ],
          "internalType": "struct QueryManager.Query[]",
          "name": "",
          "type": "tuple[]"
        }
      ],
      "stateMutability": "view",
      "type": "function"
    },
    {
      "inputs": [
        {
          "internalType": "uint256",
          "name": "queryIndex",
          "type": "uint256"
        }
      ],
      "name": "getQuery",
      "outputs": [
        {
          "components": [
            {
              "internalType": "uint256",
              "name": "queryIndex",
              "type": "uint256"
            },
            {
              "internalType": "string",
              "name": "ppcCmd",
              "type": "string"
            },
            {
              "internalType": "string",
              "name": "result",
              "type": "string"
            },
            {
              "internalType": "enum QueryManager.QueryStatus",
              "name": "status",
              "type": "uint8"
            },
            {
              "internalType": "uint256",
              "name": "totalPaid",
              "type": "uint256"
            },
            {
              "internalType": "uint256[]",
              "name": "bucketIds",
              "type": "uint256[]"
            },
            {
              "internalType": "uint256[]",
              "name": "policyIndexes",
              "type": "uint256[]"
            }
          ],
          "internalType": "struct QueryManager.Query",
          "name": "",
          "type": "tuple"
        }
      ],
      "stateMutability": "view",
      "type": "function"
    },
    {
      "inputs": [
        {
          "internalType": "address",
          "name": "user",
          "type": "address"
        },
        {
          "internalType": "uint256",
          "name": "index",
          "type": "uint256"
        }
      ],
      "name": "getQueryByUserIndex",
      "outputs": [
        {
          "components": [
            {
              "internalType": "uint256",
              "name": "queryIndex",
              "type": "uint256"
            },
            {
              "internalType": "string",
              "name": "ppcCmd",
              "type": "string"
            },
            {
              "internalType": "string",
              "name": "result",
              "type": "string"
            },
            {
              "internalType": "enum QueryManager.QueryStatus",
              "name": "status",
              "type": "uint8"
            },
            {
              "internalType": "uint256",
              "name": "totalPaid",
              "type": "uint256"
            },
            {
              "internalType": "uint256[]",
              "name": "bucketIds",
              "type": "uint256[]"
            },
            {
              "internalType": "uint256[]",
              "name": "policyIndexes",
              "type": "uint256[]"
            }
          ],
          "internalType": "struct QueryManager.Query",
          "name": "",
          "type": "tuple"
        }
      ],
      "stateMutability": "view",
      "type": "function"
    },
    {
      "inputs": [
        {
          "internalType": "bytes32",
          "name": "role",
          "type": "bytes32"
        }
      ],
      "name": "getRoleAdmin",
      "outputs": [
        {
          "internalType": "bytes32",
          "name": "",
          "type": "bytes32"
        }
      ],
      "stateMutability": "view",
      "type": "function"
    },
    {
      "inputs": [
        {
          "internalType": "address",
          "name": "user",
          "type": "address"
        }
      ],
      "name": "getUserIndex",
      "outputs": [
        {
          "internalType": "uint256",
          "name": "",
          "type": "uint256"
        }
      ],
      "stateMutability": "view",
      "type": "function"
    },
    {
      "inputs": [
        {
          "internalType": "bytes32",
          "name": "role",
          "type": "bytes32"
        },
        {
          "internalType": "address",
          "name": "account",
          "type": "address"
        }
      ],
      "name": "grantRole",
      "outputs": [],
      "stateMutability": "nonpayable",
      "type": "function"
    },
    {
      "inputs": [
        {
          "internalType": "bytes32",
          "name": "role",
          "type": "bytes32"
        },
        {
          "internalType": "address",
          "name": "account",
          "type": "address"
        }
      ],
      "name": "hasRole",
      "outputs": [
        {
          "internalType": "bool",
          "name": "",
          "type": "bool"
        }
      ],
      "stateMutability": "view",
      "type": "function"
    },
    {
      "inputs": [
        {
          "internalType": "address",
          "name": "_nToken",
          "type": "address"
        }
      ],
      "name": "initialize",
      "outputs": [],
      "stateMutability": "nonpayable",
      "type": "function"
    },
    {
      "inputs": [],
      "name": "nToken",
      "outputs": [
        {
          "internalType": "contract IERC20Upgradeable",
          "name": "",
          "type": "address"
        }
      ],
      "stateMutability": "view",
      "type": "function"
    },
    {
      "inputs": [
        {
          "internalType": "uint256",
          "name": "userIndex",
          "type": "uint256"
        },
        {
          "internalType": "string",
          "name": "ppcCmd",
          "type": "string"
        },
        {
          "internalType": "bool[]",
          "name": "useAllowlists",
          "type": "bool[]"
        },
        {
          "internalType": "uint256[]",
          "name": "accessIndexes",
          "type": "uint256[]"
        },
        {
          "internalType": "uint256",
          "name": "payAmount",
          "type": "uint256"
        },
        {
          "internalType": "uint256[]",
          "name": "bucketIds",
          "type": "uint256[]"
        },
        {
          "internalType": "uint256[]",
          "name": "policyIndexes",
          "type": "uint256[]"
        }
      ],
      "name": "payQuery",
      "outputs": [],
      "stateMutability": "nonpayable",
      "type": "function"
    },
    {
      "inputs": [
        {
          "internalType": "uint256",
          "name": "queryIndex",
          "type": "uint256"
        },
        {
          "internalType": "string",
          "name": "result",
          "type": "string"
        }
      ],
      "name": "postQueryResult",
      "outputs": [],
      "stateMutability": "nonpayable",
      "type": "function"
    },
    {
      "inputs": [
        {
          "internalType": "uint256",
          "name": "queryIndex",
          "type": "uint256"
        },
        {
          "internalType": "string",
          "name": "error",
          "type": "string"
        }
      ],
      "name": "refundFailedQuery",
      "outputs": [],
      "stateMutability": "nonpayable",
      "type": "function"
    },
    {
      "inputs": [
        {
          "internalType": "bytes32",
          "name": "role",
          "type": "bytes32"
        },
        {
          "internalType": "address",
          "name": "account",
          "type": "address"
        }
      ],
      "name": "renounceRole",
      "outputs": [],
      "stateMutability": "nonpayable",
      "type": "function"
    },
    {
      "inputs": [
        {
          "internalType": "bytes32",
          "name": "role",
          "type": "bytes32"
        },
        {
          "internalType": "address",
          "name": "account",
          "type": "address"
        }
      ],
      "name": "revokeRole",
      "outputs": [],
      "stateMutability": "nonpayable",
      "type": "function"
    },
    {
      "inputs": [
        {
          "internalType": "address",
          "name": "newAddress",
          "type": "address"
        }
      ],
      "name": "setEoaBondContract",
      "outputs": [],
      "stateMutability": "nonpayable",
      "type": "function"
    },
    {
      "inputs": [
        {
          "internalType": "uint256",
          "name": "_feeBps",
          "type": "uint256"
        },
        {
          "internalType": "address",
          "name": "_recipient",
          "type": "address"
        }
      ],
      "name": "setFeeAndRecipient",
      "outputs": [],
      "stateMutability": "nonpayable",
      "type": "function"
    },
    {
      "inputs": [
        {
          "internalType": "bytes4",
          "name": "interfaceId",
          "type": "bytes4"
        }
      ],
      "name": "supportsInterface",
      "outputs": [
        {
          "internalType": "bool",
          "name": "",
          "type": "bool"
        }
      ],
      "stateMutability": "view",
      "type": "function"
    }
  ],
  "bytecode": "0x608080604052346100c2576000549060ff8260081c16610070575060ff80821603610035575b604051612d9e9081620000c88239f35b60ff90811916176000557f7f26b83ff96e1f2b6a682f133852f6798a09c465da95921460cefb3847402498602060405160ff8152a138610025565b62461bcd60e51b815260206004820152602760248201527f496e697469616c697a61626c653a20636f6e747261637420697320696e697469604482015266616c697a696e6760c81b6064820152608490fd5b600080fdfe608080604052600436101561001357600080fd5b60003560e01c90816301ffc9a714611df1575080630b57864a14611153578063248a9ca31461112457806324a9d8531461110657806326987b60146110e8578063273ce16314610b1a57806328ba3b5414610a33578063292808a1146107815780632f2ff15d146106e057806336568abe1461064e578063379917c51461062657806346904840146105fd5780634b0d58d5146105d4578063627be501146105ab57806374baa655146105825780637812c4a11461053257806391d14854146104e5578063a217fddf146104c9578063aeb2ffc114610492578063c4d66de814610260578063d547741f1461021f578063dbe070fb1461015b5763ee9907a41461011c57600080fd5b34610156576020366003190112610156576001600160a01b0361013d611ed4565b1660005260cd6020526020604060002054604051908152f35b600080fd5b3461015657604036600319011261015657600435610177611eea565b90610180612206565b61271081116101e15760ce81905560cf80546001600160a01b0319166001600160a01b039390931692831790556040805192835260208301919091527f309b6393e1f460ba524a92be7cf63622f4a3aecc37c0c13bfc227ed4d86aad6291a1005b60405162461bcd60e51b81526020600482015260166024820152754665652063616e6e6f7420657863656564203130302560501b6044820152606490fd5b346101565760403660031901126101565761025e60043561023e611eea565b9080600052606560205261025960016040600020015461232a565b6124c2565b005b34610156576020806003193601126101565761027a611ed4565b6000549060ff808360081c161592838094610486575b8015610470575b156104145760ff198181166001176000559084610402575b506102d78260005460081c166102c481612695565b6102cd81612695565b6001609755612695565b600080526065855260406000203360005285528160406000205416156103c6575b600080516020612d4983398151915291826000526065865260406000203360005286526040600020541615610387575b505060c980546001600160a01b0319166001600160a01b039290921691909117905561035057005b7f7f26b83ff96e1f2b6a682f133852f6798a09c465da95921460cefb38474024989061ff00196000541660005560405160018152a1005b81600052606585526040600020336000528552600160406000209182541617905533903390600080516020612d29833981519152600080a48380610328565b60008052606585526040600020336000528552604060002060018282541617905533336000600080516020612d298339815191528180a46102f8565b61ffff191661010117600055856102af565b60405162461bcd60e51b815260048101869052602e60248201527f496e697469616c697a61626c653a20636f6e747261637420697320616c72656160448201526d191e481a5b9a5d1a585b1a5e995960921b6064820152608490fd5b50303b1580156102975750600182821614610297565b50600182821610610290565b34610156576020366003190112610156576104c56104b1600435612b8d565b604051918291602083526020830190611f7c565b0390f35b3461015657600036600319011261015657602060405160008152f35b34610156576040366003190112610156576104fe611eea565b600435600052606560205260406000209060018060a01b0316600052602052602060ff604060002054166040519015158152f35b346101565760203660031901126101565761054b611ed4565b610553612206565b61055b6126f5565b60ca80546001600160a01b0319166001600160a01b03929092169190911790556001609755005b346101565760003660031901126101565760c9546040516001600160a01b039091168152602090f35b346101565760003660031901126101565760ca546040516001600160a01b039091168152602090f35b34610156576000366003190112610156576020604051600080516020612d498339815191528152f35b346101565760003660031901126101565760cf546040516001600160a01b039091168152602090f35b34610156576040366003190112610156576104c56104b1610645611ed4565b60243590612c34565b3461015657604036600319011261015657610667611eea565b336001600160a01b038216036106835761025e906004356124c2565b60405162461bcd60e51b815260206004820152602f60248201527f416363657373436f6e74726f6c3a2063616e206f6e6c792072656e6f756e636560448201526e103937b632b9903337b91039b2b63360891b6064820152608490fd5b34610156576040366003190112610156576004356106fc611eea565b81600052606560205261071660016040600020015461232a565b81600052606560205260406000209060018060a01b0316908160005260205260ff604060002054161561074557005b8160005260656020526040600020816000526020526040600020600160ff198254161790553391600080516020612d29833981519152600080a4005b346101565761078f36611ea1565b61079a929192611ffd565b6107a26126f5565b6107af60cb548314612ccb565b6107c16107bb83612871565b506129f8565b9060018060a01b03938483511660005260209060cd82526107ea604060002083860151906127bd565b509260028401916001600160401b038211610a1d5781906108158261080f86546127d9565b8661282a565b600090601f83116001146109b3576000926109a8575b50508160011b916000199060031b1c19161790555b60038201600260ff1982541617905560cb54600181018091116109925760cb5560c95483516004938401805460405163a9059cbb60e01b81529289166001600160a01b031695830195909552602482019490945290829082908816816000816044810103925af190811561098657600091610951575b501561090d57505490516040805192835293166001600160a01b03166020820152918201527f0db5dca4dd414f50b27b36cd3fe4a713a2b72c882d12764afc08d327f24be8e79080606081015b0390a16001609755005b6064906040519062461bcd60e51b82526004820152601f60248201527f4661696c656420746f20726566756e6420746f6b656e7320746f2075736572006044820152fd5b90508181813d831161097f575b61096881836124a1565b81010312610156576109799061274b565b866108b6565b503d61095e565b6040513d6000823e3d90fd5b634e487b7160e01b600052601160045260246000fd5b01359050888061082b565b909150601f1983169184600052856000209260005b87828210610a075750509084600195949392106109ed575b505050811b019055610840565b0135600019600384901b60f8161c191690558880806109e0565b60018496829395870135815501950192016109c8565b634e487b7160e01b600052604160045260246000fd5b3461015657602080600319360112610156576001600160a01b03610a55611ed4565b1660005260cd8152604060002090815491610a6f83612758565b92610a7d60405194856124a1565b8084528284018092600052836000206000915b838310610af75750505050604051918083019381845251809452604083019360408160051b85010192916000955b828710610acb5785850386f35b909192938280610ae7600193603f198a82030186528851611f7c565b9601920196019592919092610abe565b600786600192610b09859a999a612b12565b815201920192019190959495610a90565b3461015657610b2836611ea1565b91610b31611ffd565b610b396126f5565b610b4660cb548214612ccb565b610b526107bb82612871565b9160018060a01b0383511660005260cd602052610b7860406000206020850151906127bd565b509360028501916001600160401b038211610a1d578190610b9d8261080f86546127d9565b600090601f831160011461107d57600092611072575b50508160011b916000199060031b1c19161790555b60038301600360ff1982541617905560009260005b6005820154811015610ee75760ca546001600160a01b031690610c038160058501612d10565b905460405163696412bd60e11b815260039290921b1c6004820152600081602481865afa801561098657610c5491600091610ec4575b50610c478360068701612d10565b90549060031b1c90612928565b516040519063d3e8948360e01b82526004820152608081602481865afa90811561098657600091610e91575b506000610c908360058701612d10565b90549060031b1c602460405180968193639b51fb0d60e01b835260048301525afa92831561098657600093610e10575b5060ce549061271091820390828211610992578181029181830414901517156109925760c95460405163a9059cbb60e01b81526001600160a01b0386811660048301529390920460248301819052989260209183916044918391600091165af190811561098657600091610dd6575b5015610d9157610d8c92610d64887f55703a43e3a9fde77a83dbeae6ceb4606e2958b557b0a9414068abbe71ad8c8593612538565b60408051998a526001600160a01b039290921660208a015290880186905296606090a1612890565b610bdd565b60405162461bcd60e51b815260206004820152601b60248201527f4661696c656420746f206469737472696275746520746f6b656e7300000000006044820152606490fd5b90506020813d602011610e08575b81610df1602093836124a1565b8101031261015657610e029061274b565b88610d2f565b3d9150610de4565b9092503d806000833e610e2381836124a1565b60808282810103126101565781516001600160401b03811161015657610e4e9082840190840161297d565b5060208201516001600160401b03811161015657610e7091830190830161297d565b50610e896060610e826040840161293c565b920161274b565b509187610cc0565b610eb3915060803d608011610ebd575b610eab81836124a1565b810190612950565b5050905087610c80565b503d610ea1565b610ee191503d806000833e610ed981836124a1565b8101906128af565b88610c39565b50600401548381811161102d5760c95460cf546001600160a01b039182169391169181039081116109925760405163a9059cbb60e01b81526001600160a01b03929092166004830152602482015290602090829060449082906000905af190811561098657600091610ff3575b5015610fb55760cb5491600183018093116109925760cb929092559051604080516001600160a01b03909216825260208201929092527f6c0a22920ff17df2882be32b96efe6c6f2a8ee9afd31289451970b5ab188d5c19181908101610903565b60405162461bcd60e51b81526020600482015260166024820152754661696c656420746f207472616e736665722066656560501b6044820152606490fd5b90506020813d602011611025575b8161100e602093836124a1565b810103126101565761101f9061274b565b83610f54565b3d9150611001565b60405162461bcd60e51b815260206004820152601a60248201527f496e636f727265637420616d6f756e74732073656e74206f75740000000000006044820152606490fd5b013590508680610bb3565b909150601f198316918460005260206000209260005b8181106110d057509084600195949392106110b6575b505050811b019055610bc8565b0135600019600384901b60f8161c191690558680806110a9565b91936020600181928787013581550195019201611093565b3461015657600036600319011261015657602060cb54604051908152f35b3461015657600036600319011261015657602060ce54604051908152f35b346101565760203660031901126101565760043560005260656020526020600160406000200154604051908152f35b346101565760e0366003190112610156576024356001600160401b03811161015657611183903690600401611e44565b906044356001600160401b038111610156576111a3903690600401611e71565b90926064356001600160401b038111610156576111c4903690600401611e71565b9460a4356001600160401b038111610156576111e4903690600401611e71565b96909460c4356001600160401b03811161015657611206903690600401611e71565b9390946112116126f5565b898503611d9d5760ca54600094906001600160a01b0316855b8c8082106118295750505050505050608435036117ed573360005260cd602052604060002054600435036117b35760c9546040516323b872dd60e01b8152336004820152306024820152608435604482015290602090829060649082906000906001600160a01b03165af190811561098657600091611779575b50156117215760cc54943360005260cd602052604060002094604051976112ca89612435565b8789526112d686612545565b6112e360405191826124a1565b86815236878501116101565760006020886113409961133497838601378301015260208a01526040516113158161246b565b6000815260408a0152600160608a015260843560808a0152369161276f565b60a0870152369161276f565b60c08401528054600160401b811015610a1d57611362916001820181556127bd565b91909161159c578251825560208301519283516001600160401b038111610a1d5761139d8161139460018701546127d9565b6001870161282a565b6020601f82116001146116b25781929394956000926116a7575b50508160011b916000199060031b1c19161760018401555b60408101519283516001600160401b038111610a1d576113ff816113f660028501546127d9565b6002850161282a565b6020601f821160011461163857819293949560009261162d575b50508160011b916000199060031b1c19161760028201555b60038101606083015160048110156116175760ff801983541691161790556080820151600482015560a08201518051906001600160401b038211610a1d57600160401b8211610a1d5760209060058401548360058601558084106115f7575b500160058301600052602060002060005b8381106115e35760c08601518051889160068801906001600160401b038311610a1d57600160401b8311610a1d5760209082548484558085106115c6575b500190600052602060002060005b8381106115b2576040518561150182612450565b3382526020820190600435825260cc54600160401b811015610a1d5780600161152d920160cc55612871565b61159c57925183546001600160a01b0319166001600160a01b0391909116178355905160019290920191909155604080516084358152336020820152908101919091527f414cbe13766319becf7803190af5a9274d3ce41bca3adf6f85e5ef26d5141524908060608101610903565b634e487b7160e01b600052600060045260246000fd5b6001906020845194019381840155016114ed565b6115dd908460005285846000209182019101612813565b856114df565b6001906020845194019381840155016114a1565b611611906005860160005284846000209182019101612813565b86611490565b634e487b7160e01b600052602160045260246000fd5b015190508580611419565b6002830160005260206000209060005b601f198416811061168f575060019394959683601f19811610611676575b505050811b016002820155611431565b015160001960f88460031b161c19169055858080611666565b9091602060018192858b015181550193019101611648565b0151905085806113b7565b6001850160005260206000209060005b601f1984168110611709575060019394959683601f198116106116f0575b505050811b0160018401556113cf565b015160001960f88460031b161c191690558580806116e0565b9091602060018192858b0151815501930191016116c2565b60405162461bcd60e51b815260206004820152602a60248201527f4661696c656420746f207472616e7366657220746f6b656e7320746f207468696044820152691cc818dbdb9d1c9858dd60b21b6064820152608490fd5b90506020813d6020116117ab575b81611794602093836124a1565b81010312610156576117a59061274b565b876112a4565b3d9150611787565b60405162461bcd60e51b8152602060048201526012602482015271092dcecc2d8d2c840eae6cae440d2dcc8caf60731b6044820152606490fd5b60405162461bcd60e51b8152602060048201526014602482015273125b98dbdc9c9958dd081c185e48185b5bdd5b9d60621b6044820152606490fd5b81611834918d61289f565b60405163696412bd60e11b815290356004820152600081602481865afa80156109865761187691600091611d82575b5061186f838b8d61289f565b3590612928565b5160405163d3e8948360e01b815260048101829052608081602481875afa90811561098657600099600090600092600094611d55575b50906118b791612538565b99421015611d1f576001600160a01b031615611ce257611ca55760405163796d749b60e01b815233600482015290602082602481875afa91821561098657600092611c69575b5061190983898961289f565b3580151581036101565715611a675760405190636f6bfa5760e11b82526004820152600081602481875afa908115610986576000916119b7575b506001600160a01b039061195c9061186f85888a61289f565b51166001600160a01b039091160361197c5761197790612890565b61122a565b60405162461bcd60e51b8152602060048201526013602482015272556e617574686f72697a65642061636365737360681b6044820152606490fd5b3d9150816000823e6119c982826124a1565b6020818381010312610156578051916001600160401b03831161015657808201601f848401011215610156578282015191611a0383612758565b93611a1160405195866124a1565b8385526020850192820160208560051b83850101011161015657602081830101925b60208560051b83850101018410611a4f5750505050508f611943565b60208091611a5c8661293c565b815201930192611a33565b6040519063854e7cb360e01b82526004820152600081602481875afa801561098657600090611b9b575b611aa1915061186f84878961289f565b516020815191012090604051611ab681612450565b602060019182815201601560f91b8152208203611ad9575b505061197790612890565b60405162aee7a360e71b81526001600160a01b039091166004820152600081602481875afa90811561098657600091611b5a575b506020815191012003611b21578d80611ace565b60405162461bcd60e51b8152602060048201526011602482015270086c2e8cacedee4f240dad2e6dac2e8c6d607b1b6044820152606490fd5b90503d806000833e611b6c81836124a1565b81016040828203126101565760208201516001600160401b03811161015657611b95920161297d565b8f611b0d565b503d806000833e611bac81836124a1565b6020828281010312610156578151916001600160401b03831161015657818101601f848301011215610156578281015190611be682612758565b93611bf460405195866124a1565b828552602085019084830160208560051b83860101011161015657602081840101915b60208560051b83860101018310611c3757505050505050611aa190611a91565b82516001600160401b03811161015657602091611c5e8392838a890191878a01010161297d565b815201920191611c17565b9091506020813d602011611c9d575b81611c85602093836124a1565b8101031261015657611c969061293c565b908f6118fd565b3d9150611c78565b60405162461bcd60e51b8152602060048201526015602482015274141bdb1a58de481a5cc819195858dd1a5d985d1959605a1b6044820152606490fd5b60405162461bcd60e51b8152602060048201526015602482015274141bdb1a58de48191bd95cc81b9bdd08195e1a5cdd605a1b6044820152606490fd5b60405162461bcd60e51b815260206004820152600e60248201526d141bdb1a58de48195e1c1a5c995960921b6044820152606490fd5b915092506118b79a50611d77915060803d608011610ebd57610eab81836124a1565b929b929390926118ac565b611d9791503d806000833e610ed981836124a1565b8f611863565b60405162461bcd60e51b815260206004820152602660248201527f4275636b657473206d757374206861766520636f72726573706f6e64696e6720604482015265706f6c69637960d01b6064820152608490fd5b34610156576020366003190112610156576004359063ffffffff60e01b821680920361015657602091637965db0b60e01b8114908115611e33575b5015158152f35b6301ffc9a760e01b14905083611e2c565b9181601f84011215610156578235916001600160401b038311610156576020838186019501011161015657565b9181601f84011215610156578235916001600160401b038311610156576020808501948460051b01011161015657565b9060406003198301126101565760043591602435906001600160401b03821161015657611ed091600401611e44565b9091565b600435906001600160a01b038216820361015657565b602435906001600160a01b038216820361015657565b60005b838110611f135750506000910152565b8181015183820152602001611f03565b90602091611f3c81518092818552858086019101611f00565b601f01601f1916010190565b90815180825260208080930193019160005b828110611f68575050505090565b835185529381019392810192600101611f5a565b80518252611fae611f9c602083015160e0602086015260e0850190611f23565b60408301518482036040860152611f23565b91606082015192600484101561161757611fe960c091611ffa9560608501526080850151608085015260a085015184820360a0860152611f48565b9201519060c0818403910152611f48565b90565b3360009081527f6d51351eb7b22a09a8f336cea466b225fe287f25ae5dec64ddc74b92c45bf33760209081526040808320549092600080516020612d498339815191529160ff161561204f5750505050565b61205833612587565b9184519061206582612486565b604282528482019260603685378251156121f257603084538251906001918210156121f25790607860218501536041915b8183116121845750505061214257604861213e93869361212293612113985198899376020b1b1b2b9b9a1b7b73a3937b61d1030b1b1b7bab73a1604d1b8a8601526120ea815180928c603789019101611f00565b8401917001034b99036b4b9b9b4b733903937b6329607d1b603784015251809386840190611f00565b010360288101875201856124a1565b5192839262461bcd60e51b845260048401526024830190611f23565b0390fd5b60648486519062461bcd60e51b825280600483015260248201527f537472696e67733a20686578206c656e67746820696e73756666696369656e746044820152fd5b909192600f811660108110156121de576f181899199a1a9b1b9c1cb0b131b232b360811b901a6121b48587612560565b5360041c9280156121ca57600019019190612096565b634e487b7160e01b82526011600452602482fd5b634e487b7160e01b83526032600452602483fd5b634e487b7160e01b81526032600452602490fd5b3360009081527fffdfc1249c027f9191656349feb0761381bb32c9f557e01f419fd08754bf5a1b602090815260408083205490929060ff161561224857505050565b61225133612587565b908084519061225f82612486565b604282528482019260603685378251156121f257603084538251906001918210156121f25790607860218501536041915b8183116122e45750505061214257604861213e93869361212293612113985198899376020b1b1b2b9b9a1b7b73a3937b61d1030b1b1b7bab73a1604d1b8a8601526120ea815180928c603789019101611f00565b909192600f811660108110156121de576f181899199a1a9b1b9c1cb0b131b232b360811b901a6123148587612560565b5360041c9280156121ca57600019019190612290565b60009080825260209060658252604092838120338252835260ff8482205416156123545750505050565b61235d33612587565b9184519061236a82612486565b604282528482019260603685378251156121f257603084538251906001918210156121f25790607860218501536041915b8183116123ef5750505061214257604861213e93869361212293612113985198899376020b1b1b2b9b9a1b7b73a3937b61d1030b1b1b7bab73a1604d1b8a8601526120ea815180928c603789019101611f00565b909192600f811660108110156121de576f181899199a1a9b1b9c1cb0b131b232b360811b901a61241f8587612560565b5360041c9280156121ca5760001901919061239b565b60e081019081106001600160401b03821117610a1d57604052565b604081019081106001600160401b03821117610a1d57604052565b602081019081106001600160401b03821117610a1d57604052565b608081019081106001600160401b03821117610a1d57604052565b90601f801991011681019081106001600160401b03821117610a1d57604052565b906000918083526065602052604083209160018060a01b03169182845260205260ff6040842054166124f357505050565b8083526065602052604083208284526020526040832060ff1981541690557ff6391f5c32d9c69d2a47ea670b442974b53935d1edc7fd64eb21e047a839171b339380a4565b9190820180921161099257565b6001600160401b038111610a1d57601f01601f191660200190565b908151811015612571570160200190565b634e487b7160e01b600052603260045260246000fd5b60405190606082018281106001600160401b03821117610a1d57604052602a82526020820160403682378251156125715760309053815160019081101561257157607860218401536029905b8082116126275750506125e35790565b606460405162461bcd60e51b815260206004820152602060248201527f537472696e67733a20686578206c656e67746820696e73756666696369656e746044820152fd5b9091600f81166010811015612680576f181899199a1a9b1b9c1cb0b131b232b360811b901a6126568486612560565b5360041c91801561266b5760001901906125d3565b60246000634e487b7160e01b81526011600452fd5b60246000634e487b7160e01b81526032600452fd5b1561269c57565b60405162461bcd60e51b815260206004820152602b60248201527f496e697469616c697a61626c653a20636f6e7472616374206973206e6f74206960448201526a6e697469616c697a696e6760a81b6064820152608490fd5b600260975414612706576002609755565b60405162461bcd60e51b815260206004820152601f60248201527f5265656e7472616e637947756172643a207265656e7472616e742063616c6c006044820152606490fd5b5190811515820361015657565b6001600160401b038111610a1d5760051b60200190565b929161277a82612758565b9161278860405193846124a1565b829481845260208094019160051b810192831161015657905b8282106127ae5750505050565b813581529083019083016127a1565b8054821015612571576000526007602060002091020190600090565b90600182811c92168015612809575b60208310146127f357565b634e487b7160e01b600052602260045260246000fd5b91607f16916127e8565b81811061281e575050565b60008155600101612813565b9190601f811161283957505050565b612865926000526020600020906020601f840160051c83019310612867575b601f0160051c0190612813565b565b9091508190612858565b60cc548110156125715760cc60005260206000209060011b0190600090565b60001981146109925760010190565b91908110156125715760051b0190565b6020908181840312610156578051906001600160401b03821161015657019180601f840112156101565782516128e481612758565b936128f260405195866124a1565b818552838086019260051b820101928311610156578301905b828210612919575050505090565b8151815290830190830161290b565b80518210156125715760209160051b010190565b51906001600160a01b038216820361015657565b919082608091031261015657815191602081015191611ffa60606129766040850161293c565b930161274b565b81601f8201121561015657805161299381612545565b926129a160405194856124a1565b8184526020828401011161015657611ffa9160208085019101611f00565b604051906129cc82612435565b606060c08360008152826020820152826040820152600083820152600060808201528260a08201520152565b90604051612a0581612450565b82546001600160a01b031681526001909201546020830152565b9060405191826000825492612a33846127d9565b908184526001948581169081600014612aa05750600114612a5d575b5050612865925003836124a1565b9093915060005260209081600020936000915b818310612a8857505061286593508201013880612a4f565b85548884018501529485019487945091830191612a70565b91505061286594506020925060ff191682840152151560051b8201013880612a4f565b9060405191828154918282526020928383019160005283600020936000905b828210612af857505050612865925003836124a1565b855484526001958601958895509381019390910190612ae2565b90604051612b1f81612435565b809280548252612b3160018201612a1f565b6020830152612b4260028201612a1f565b604083015260ff600382015416906004821015611617576006612b889160c093606086015260048101546080860152612b7d60058201612ac3565b60a086015201612ac3565b910152565b612b956129bf565b5060cc54811015612bda57612bd4612bb26107bb611ffa93612871565b60018060a01b0381511660005260cd60205260206040600020910151906127bd565b50612b12565b50604051612be781612435565b60008152604051612bf78161246b565b600081526020820152604051612c0c8161246b565b6000815260408201526000606082015260006080820152606060a0820152606060c082015290565b612c3c6129bf565b506001600160a01b0316600081815260cd60205260408082205490939290831015612c78579281611ffa94612bd494935260cd602052206127bd565b509050815191612c8783612435565b8183528051612c958161246b565b8281526020840152805190612ca98261246b565b8282528301528060608301526080820152606060a0820152606060c082015290565b15612cd257565b60405162461bcd60e51b81526020600482015260166024820152750aadccaf0e0cac6e8cac840e2eacae4f240d2dcc8caf60531b6044820152606490fd5b8054821015612571576000526020600020019060009056fe2f8788117e7eff1d82e926ec794901d17c78024a50270940304540a733656f0dfc9efeb1a4bb8e4320137debe56dee502334d29d03c022fe29495c8d7825ec5fa2646970667358221220c5ea658d8e941f5375bdef3bf28b2aa9d56f729935376bba40c6255cde49711164736f6c63430008130033",
  "linkReferences": {},
  "deployedLinkReferences": {}
}